{
  "contractName": "BondingCurveFunds",
  "abi": [
    {
      "constant": true,
      "inputs": [],
      "name": "contractEnabled",
      "outputs": [
        {
          "name": "",
          "type": "bool"
        }
      ],
      "payable": false,
      "stateMutability": "view",
      "type": "function"
    },
    {
      "constant": true,
      "inputs": [],
      "name": "tokenContract",
      "outputs": [
        {
          "name": "",
          "type": "address"
        }
      ],
      "payable": false,
      "stateMutability": "view",
      "type": "function"
    },
    {
      "constant": false,
      "inputs": [],
      "name": "renounceOwnership",
      "outputs": [],
      "payable": false,
      "stateMutability": "nonpayable",
      "type": "function"
    },
    {
      "constant": true,
      "inputs": [],
      "name": "owner",
      "outputs": [
        {
          "name": "",
          "type": "address"
        }
      ],
      "payable": false,
      "stateMutability": "view",
      "type": "function"
    },
    {
      "constant": false,
      "inputs": [
        {
          "name": "_newOwner",
          "type": "address"
        }
      ],
      "name": "transferOwnership",
      "outputs": [],
      "payable": false,
      "stateMutability": "nonpayable",
      "type": "function"
    },
    {
      "inputs": [
        {
          "name": "_tokenAddress",
          "type": "address"
        }
      ],
      "payable": false,
      "stateMutability": "nonpayable",
      "type": "constructor"
    },
    {
      "payable": true,
      "stateMutability": "payable",
      "type": "fallback"
    },
    {
      "anonymous": false,
      "inputs": [],
      "name": "LogContractDisabled",
      "type": "event"
    },
    {
      "anonymous": false,
      "inputs": [],
      "name": "LogContractEnabled",
      "type": "event"
    },
    {
      "anonymous": false,
      "inputs": [
        {
          "indexed": true,
          "name": "fromAccount",
          "type": "address"
        },
        {
          "indexed": true,
          "name": "oldAddress",
          "type": "address"
        },
        {
          "indexed": true,
          "name": "newAddress",
          "type": "address"
        }
      ],
      "name": "LogTokenContractChanged",
      "type": "event"
    },
    {
      "anonymous": false,
      "inputs": [
        {
          "indexed": true,
          "name": "account",
          "type": "address"
        },
        {
          "indexed": false,
          "name": "amount",
          "type": "uint256"
        }
      ],
      "name": "LogFundingReceived",
      "type": "event"
    },
    {
      "anonymous": false,
      "inputs": [
        {
          "indexed": false,
          "name": "amount",
          "type": "uint256"
        },
        {
          "indexed": true,
          "name": "account",
          "type": "address"
        }
      ],
      "name": "LogEthSent",
      "type": "event"
    },
    {
      "anonymous": false,
      "inputs": [
        {
          "indexed": true,
          "name": "previousOwner",
          "type": "address"
        }
      ],
      "name": "OwnershipRenounced",
      "type": "event"
    },
    {
      "anonymous": false,
      "inputs": [
        {
          "indexed": true,
          "name": "previousOwner",
          "type": "address"
        },
        {
          "indexed": true,
          "name": "newOwner",
          "type": "address"
        }
      ],
      "name": "OwnershipTransferred",
      "type": "event"
    },
    {
      "constant": false,
      "inputs": [
        {
          "name": "_amount",
          "type": "uint256"
        },
        {
          "name": "_account",
          "type": "address"
        }
      ],
      "name": "sendEth",
      "outputs": [],
      "payable": false,
      "stateMutability": "nonpayable",
      "type": "function"
    },
    {
      "constant": false,
      "inputs": [
        {
          "name": "_tokenAddress",
          "type": "address"
        }
      ],
      "name": "setTokenContract",
      "outputs": [],
      "payable": false,
      "stateMutability": "nonpayable",
      "type": "function"
    },
    {
      "constant": false,
      "inputs": [],
      "name": "emergencyStop",
      "outputs": [
        {
          "name": "",
          "type": "bool"
        }
      ],
      "payable": false,
      "stateMutability": "nonpayable",
      "type": "function"
    },
    {
      "constant": false,
      "inputs": [],
      "name": "resumeContract",
      "outputs": [
        {
          "name": "",
          "type": "bool"
        }
      ],
      "payable": false,
      "stateMutability": "nonpayable",
      "type": "function"
    },
    {
      "constant": true,
      "inputs": [],
      "name": "getTokenAddress",
      "outputs": [
        {
          "name": "",
          "type": "address"
        }
      ],
      "payable": false,
      "stateMutability": "view",
      "type": "function"
    }
  ],
  "bytecode": "0x608060405260018060146101000a81548160ff02191690831515021790555034801561002a57600080fd5b50604051602080610c7583398101806040528101908080519060200190929190505050336000806101000a81548173ffffffffffffffffffffffffffffffffffffffff021916908373ffffffffffffffffffffffffffffffffffffffff16021790555080600160006101000a81548173ffffffffffffffffffffffffffffffffffffffff021916908373ffffffffffffffffffffffffffffffffffffffff1602179055508073ffffffffffffffffffffffffffffffffffffffff16600073ffffffffffffffffffffffffffffffffffffffff163373ffffffffffffffffffffffffffffffffffffffff167f8e50965f27112954dcece2b6acec24689db20cd8a09e23837f4c5cf6bd6a29e860405160405180910390a450610b25806101506000396000f3006080604052600436106100a4576000357c0100000000000000000000000000000000000000000000000000000000900463ffffffff16806310fe9ae81461010f578063343686021461016657806341b3a0d9146101b357806355a373d6146101e257806363a599a414610239578063715018a6146102685780638da5cb5b1461027f578063bbcd5bbe146102d6578063c4bc5da514610319578063f2fde38b14610348575b600160149054906101000a900460ff1615156100bf57600080fd5b3373ffffffffffffffffffffffffffffffffffffffff167fa62171d5d91ef8d6ea1299955555621ff3ce8e1989f099b5fbb5a67464da6b07346040518082815260200191505060405180910390a2005b34801561011b57600080fd5b5061012461038b565b604051808273ffffffffffffffffffffffffffffffffffffffff1673ffffffffffffffffffffffffffffffffffffffff16815260200191505060405180910390f35b34801561017257600080fd5b506101b160048036038101908080359060200190929190803573ffffffffffffffffffffffffffffffffffffffff1690602001909291905050506103b5565b005b3480156101bf57600080fd5b506101c86104c5565b604051808215151515815260200191505060405180910390f35b3480156101ee57600080fd5b506101f76104d8565b604051808273ffffffffffffffffffffffffffffffffffffffff1673ffffffffffffffffffffffffffffffffffffffff16815260200191505060405180910390f35b34801561024557600080fd5b5061024e6104fe565b604051808215151515815260200191505060405180910390f35b34801561027457600080fd5b5061027d61061c565b005b34801561028b57600080fd5b5061029461071e565b604051808273ffffffffffffffffffffffffffffffffffffffff1673ffffffffffffffffffffffffffffffffffffffff16815260200191505060405180910390f35b3480156102e257600080fd5b50610317600480360381019080803573ffffffffffffffffffffffffffffffffffffffff169060200190929190505050610743565b005b34801561032557600080fd5b5061032e610896565b604051808215151515815260200191505060405180910390f35b34801561035457600080fd5b50610389600480360381019080803573ffffffffffffffffffffffffffffffffffffffff169060200190929190505050610998565b005b6000600160009054906101000a900473ffffffffffffffffffffffffffffffffffffffff16905090565b600160009054906101000a900473ffffffffffffffffffffffffffffffffffffffff1673ffffffffffffffffffffffffffffffffffffffff163373ffffffffffffffffffffffffffffffffffffffff1614151561041157600080fd5b600160149054906101000a900460ff16151561042c57600080fd5b8073ffffffffffffffffffffffffffffffffffffffff166108fc839081150290604051600060405180830381858888f19350505050158015610472573d6000803e3d6000fd5b508073ffffffffffffffffffffffffffffffffffffffff167fdf5983565e1f67d7cfa297d3729a3e95ec39dc41c53cfaf9f92bf23e9ad589bd836040518082815260200191505060405180910390a25050565b600160149054906101000a900460ff1681565b600160009054906101000a900473ffffffffffffffffffffffffffffffffffffffff1681565b6000600160009054906101000a900473ffffffffffffffffffffffffffffffffffffffff1673ffffffffffffffffffffffffffffffffffffffff163373ffffffffffffffffffffffffffffffffffffffff1614806105a857506000809054906101000a900473ffffffffffffffffffffffffffffffffffffffff1673ffffffffffffffffffffffffffffffffffffffff163373ffffffffffffffffffffffffffffffffffffffff16145b15156105b357600080fd5b600160149054906101000a900460ff1615156105ce57600080fd5b6000600160146101000a81548160ff0219169083151502179055507f687b37676ebe4283016bd9c65cf9b57739806755be23a2f5534d34a7ae915e8b60405160405180910390a16001905090565b6000809054906101000a900473ffffffffffffffffffffffffffffffffffffffff1673ffffffffffffffffffffffffffffffffffffffff163373ffffffffffffffffffffffffffffffffffffffff1614151561067757600080fd5b6000809054906101000a900473ffffffffffffffffffffffffffffffffffffffff1673ffffffffffffffffffffffffffffffffffffffff167ff8df31144d9c2f0f6b59d69b8b98abd5459d07f2742c4df920b25aae33c6482060405160405180910390a260008060006101000a81548173ffffffffffffffffffffffffffffffffffffffff021916908373ffffffffffffffffffffffffffffffffffffffff160217905550565b6000809054906101000a900473ffffffffffffffffffffffffffffffffffffffff1681565b60008060009054906101000a900473ffffffffffffffffffffffffffffffffffffffff1673ffffffffffffffffffffffffffffffffffffffff163373ffffffffffffffffffffffffffffffffffffffff161415156107a057600080fd5b600160149054906101000a900460ff1615156107bb57600080fd5b600160009054906101000a900473ffffffffffffffffffffffffffffffffffffffff16905081600160006101000a81548173ffffffffffffffffffffffffffffffffffffffff021916908373ffffffffffffffffffffffffffffffffffffffff1602179055508173ffffffffffffffffffffffffffffffffffffffff168173ffffffffffffffffffffffffffffffffffffffff163373ffffffffffffffffffffffffffffffffffffffff167f8e50965f27112954dcece2b6acec24689db20cd8a09e23837f4c5cf6bd6a29e860405160405180910390a45050565b6000600160009054906101000a900473ffffffffffffffffffffffffffffffffffffffff1673ffffffffffffffffffffffffffffffffffffffff163373ffffffffffffffffffffffffffffffffffffffff16148061094057506000809054906101000a900473ffffffffffffffffffffffffffffffffffffffff1673ffffffffffffffffffffffffffffffffffffffff163373ffffffffffffffffffffffffffffffffffffffff16145b151561094b57600080fd5b60018060146101000a81548160ff0219169083151502179055507fa90445109fa4faeb8720a8d1c9cd6865d77479d2056b9d57fd176b58f572b41860405160405180910390a16001905090565b6000809054906101000a900473ffffffffffffffffffffffffffffffffffffffff1673ffffffffffffffffffffffffffffffffffffffff163373ffffffffffffffffffffffffffffffffffffffff161415156109f357600080fd5b6109fc816109ff565b50565b600073ffffffffffffffffffffffffffffffffffffffff168173ffffffffffffffffffffffffffffffffffffffff1614151515610a3b57600080fd5b8073ffffffffffffffffffffffffffffffffffffffff166000809054906101000a900473ffffffffffffffffffffffffffffffffffffffff1673ffffffffffffffffffffffffffffffffffffffff167f8be0079c531659141344cd1fd0a4f28419497f9722a3daafe3b4186f6b6457e060405160405180910390a3806000806101000a81548173ffffffffffffffffffffffffffffffffffffffff021916908373ffffffffffffffffffffffffffffffffffffffff160217905550505600a165627a7a723058209d79862b079aa93da2a65e6ca934cb8d83698590211845e09d34627f04f2408b0029",
  "source": "pragma solidity ^0.4.24;\n\nimport \"openzeppelin-solidity/contracts/ownership/Ownable.sol\";\n\n/**\n * @title Proof of Concept contract for the Funds contract\n * @author David Truong <david@truong.vc>\n * @dev This contract is meant to ONLY hold and send ETH funds (or maybe an\n * alternative token in the future). This is to isolate funds from logic and\n * increase safety and upgradability.\n */\n\ncontract BondingCurveFunds is Ownable {\n\n    address public tokenContract;\n    bool public contractEnabled = true;\n\n    event LogContractDisabled();\n    event LogContractEnabled();\n    event LogTokenContractChanged(\n        address indexed fromAccount,\n        address indexed oldAddress,\n        address indexed newAddress\n        );\n    event LogFundingReceived(\n        address indexed account,\n        uint amount\n        );\n    event LogEthSent(\n        uint256 amount,\n        address indexed account\n        );\n\n    /**\n     * @dev Throws if called when contract has been disabled via 'emergencyStop()'.\n     */\n    modifier contractIsEnabled() {\n        require(contractEnabled);\n        _;\n    }\n\n    /**\n     * @dev Throws if not called from the authorised token contract.\n     */\n    modifier onlyTokenContract() {\n        require(msg.sender == tokenContract);\n        _;\n    }\n\n    /**\n     * @dev Throws if not called from the authorised token contract or owner.\n     */\n    modifier onlyTokenContractOrOwner() {\n        require(msg.sender == tokenContract || msg.sender == owner);\n        _;\n    }\n\n    /**\n     * @dev The owner is automatically set by Ownable.sol.\n     * @param _tokenAddress The address of the token contract associated with\n     * this funds contract\n     */\n    constructor(address _tokenAddress) public {\n        tokenContract = _tokenAddress;\n        emit LogTokenContractChanged(msg.sender, address(0), _tokenAddress);\n    }\n\n    /**\n     * @dev The fallback function, which is used to 'fund' the bonding curve for\n     * liquidity of the token.\n     * @notice Anyone can fund the token contract with ETH to increase the 'pot'\n     * associated with the token. However this would normally be done by the\n     * community organisers, who may send a portion of sponsorship money or ticket\n     * sales from community organised events.\n     */\n    function () public payable contractIsEnabled {\n        emit LogFundingReceived(msg.sender, msg.value);\n    }\n\n    /**\n     * @dev Send ETH from this funds contract to the relevant account\n     * @notice This function is protected by the modifiers, ensuring only the\n     * authorised tokenContract can call this function.\n     * @param _amount The amount of ETH to send in wei.\n     * @param _account The account address to send the ETH to.\n     */\n    function sendEth(uint256 _amount, address _account) public onlyTokenContract contractIsEnabled {\n        _account.transfer(_amount);\n        emit LogEthSent(_amount, _account);\n    }\n\n    /**\n     * @dev Change the token contract associated with this funds contract.\n     * @param _tokenAddress The address of the token contract associated with\n     * this funds contract\n     */\n    function setTokenContract(address _tokenAddress) public onlyOwner contractIsEnabled {\n        address oldAddress = tokenContract;\n        tokenContract = _tokenAddress;\n        emit LogTokenContractChanged(msg.sender, oldAddress, _tokenAddress);\n    }\n\n    /**\n     * @dev An emergency stop for funding and withdrawing from the contracts.\n     * @return A bool indicating if the emergency stop was successful.\n     */\n    function emergencyStop() public onlyTokenContractOrOwner contractIsEnabled returns (bool) {\n        contractEnabled = false;\n        emit LogContractDisabled();\n        return true;\n    }\n\n    /**\n     * @dev Restore contract.\n     * @return A bool indicating if the restoring was successful.\n     */\n    function resumeContract() public onlyTokenContractOrOwner returns (bool) {\n        contractEnabled = true;\n        emit LogContractEnabled();\n        return true;\n    }\n\n    /**\n     * @dev Return the value for the token contract address\n     * @return The address of the token contract address\n     */\n    function getTokenAddress() public view returns (address) {\n        return tokenContract;\n    }\n}\n",
  "sourcePath": "/Users/kirilivanov/DEV/KhanaFramework/Khana POC/contracts/BondingCurveFunds.sol",
  "compiler": {
    "name": "solc",
    "version": "0.4.24+commit.e67f0147.Emscripten.clang"
  },
  "schemaVersion": "3.0.0-beta.0",
  "updatedAt": "2018-10-11T19:41:29.070Z"
}