{
  "contractName": "KhanaToken",
  "abi": [
    {
      "constant": true,
      "inputs": [],
      "name": "mintingFinished",
      "outputs": [
        {
          "name": "",
          "type": "bool"
        }
      ],
      "payable": false,
      "stateMutability": "view",
      "type": "function"
    },
    {
      "constant": true,
      "inputs": [],
      "name": "name",
      "outputs": [
        {
          "name": "",
          "type": "string"
        }
      ],
      "payable": false,
      "stateMutability": "view",
      "type": "function"
    },
    {
      "constant": false,
      "inputs": [
        {
          "name": "_spender",
          "type": "address"
        },
        {
          "name": "_value",
          "type": "uint256"
        }
      ],
      "name": "approve",
      "outputs": [
        {
          "name": "",
          "type": "bool"
        }
      ],
      "payable": false,
      "stateMutability": "nonpayable",
      "type": "function"
    },
    {
      "constant": true,
      "inputs": [],
      "name": "totalSupply",
      "outputs": [
        {
          "name": "",
          "type": "uint256"
        }
      ],
      "payable": false,
      "stateMutability": "view",
      "type": "function"
    },
    {
      "constant": false,
      "inputs": [
        {
          "name": "_from",
          "type": "address"
        },
        {
          "name": "_to",
          "type": "address"
        },
        {
          "name": "_value",
          "type": "uint256"
        }
      ],
      "name": "transferFrom",
      "outputs": [
        {
          "name": "",
          "type": "bool"
        }
      ],
      "payable": false,
      "stateMutability": "nonpayable",
      "type": "function"
    },
    {
      "constant": true,
      "inputs": [],
      "name": "INITIAL_SUPPLY",
      "outputs": [
        {
          "name": "",
          "type": "uint256"
        }
      ],
      "payable": false,
      "stateMutability": "view",
      "type": "function"
    },
    {
      "constant": true,
      "inputs": [],
      "name": "decimals",
      "outputs": [
        {
          "name": "",
          "type": "uint8"
        }
      ],
      "payable": false,
      "stateMutability": "view",
      "type": "function"
    },
    {
      "constant": false,
      "inputs": [
        {
          "name": "_to",
          "type": "address"
        },
        {
          "name": "_amount",
          "type": "uint256"
        }
      ],
      "name": "mint",
      "outputs": [
        {
          "name": "",
          "type": "bool"
        }
      ],
      "payable": false,
      "stateMutability": "nonpayable",
      "type": "function"
    },
    {
      "constant": true,
      "inputs": [],
      "name": "contractEnabled",
      "outputs": [
        {
          "name": "",
          "type": "bool"
        }
      ],
      "payable": false,
      "stateMutability": "view",
      "type": "function"
    },
    {
      "constant": false,
      "inputs": [
        {
          "name": "_spender",
          "type": "address"
        },
        {
          "name": "_subtractedValue",
          "type": "uint256"
        }
      ],
      "name": "decreaseApproval",
      "outputs": [
        {
          "name": "",
          "type": "bool"
        }
      ],
      "payable": false,
      "stateMutability": "nonpayable",
      "type": "function"
    },
    {
      "constant": true,
      "inputs": [],
      "name": "fundsContract",
      "outputs": [
        {
          "name": "",
          "type": "address"
        }
      ],
      "payable": false,
      "stateMutability": "view",
      "type": "function"
    },
    {
      "constant": true,
      "inputs": [
        {
          "name": "_owner",
          "type": "address"
        }
      ],
      "name": "balanceOf",
      "outputs": [
        {
          "name": "",
          "type": "uint256"
        }
      ],
      "payable": false,
      "stateMutability": "view",
      "type": "function"
    },
    {
      "constant": false,
      "inputs": [],
      "name": "renounceOwnership",
      "outputs": [],
      "payable": false,
      "stateMutability": "nonpayable",
      "type": "function"
    },
    {
      "constant": false,
      "inputs": [],
      "name": "finishMinting",
      "outputs": [
        {
          "name": "",
          "type": "bool"
        }
      ],
      "payable": false,
      "stateMutability": "nonpayable",
      "type": "function"
    },
    {
      "constant": true,
      "inputs": [],
      "name": "owner",
      "outputs": [
        {
          "name": "",
          "type": "address"
        }
      ],
      "payable": false,
      "stateMutability": "view",
      "type": "function"
    },
    {
      "constant": true,
      "inputs": [],
      "name": "symbol",
      "outputs": [
        {
          "name": "",
          "type": "string"
        }
      ],
      "payable": false,
      "stateMutability": "view",
      "type": "function"
    },
    {
      "constant": false,
      "inputs": [
        {
          "name": "_to",
          "type": "address"
        },
        {
          "name": "_value",
          "type": "uint256"
        }
      ],
      "name": "transfer",
      "outputs": [
        {
          "name": "",
          "type": "bool"
        }
      ],
      "payable": false,
      "stateMutability": "nonpayable",
      "type": "function"
    },
    {
      "constant": true,
      "inputs": [],
      "name": "minimumEthBalance",
      "outputs": [
        {
          "name": "",
          "type": "uint256"
        }
      ],
      "payable": false,
      "stateMutability": "view",
      "type": "function"
    },
    {
      "constant": false,
      "inputs": [
        {
          "name": "_spender",
          "type": "address"
        },
        {
          "name": "_addedValue",
          "type": "uint256"
        }
      ],
      "name": "increaseApproval",
      "outputs": [
        {
          "name": "",
          "type": "bool"
        }
      ],
      "payable": false,
      "stateMutability": "nonpayable",
      "type": "function"
    },
    {
      "constant": true,
      "inputs": [
        {
          "name": "",
          "type": "address"
        }
      ],
      "name": "adminAccounts",
      "outputs": [
        {
          "name": "",
          "type": "bool"
        }
      ],
      "payable": false,
      "stateMutability": "view",
      "type": "function"
    },
    {
      "constant": true,
      "inputs": [
        {
          "name": "_owner",
          "type": "address"
        },
        {
          "name": "_spender",
          "type": "address"
        }
      ],
      "name": "allowance",
      "outputs": [
        {
          "name": "",
          "type": "uint256"
        }
      ],
      "payable": false,
      "stateMutability": "view",
      "type": "function"
    },
    {
      "constant": false,
      "inputs": [
        {
          "name": "_newOwner",
          "type": "address"
        }
      ],
      "name": "transferOwnership",
      "outputs": [],
      "payable": false,
      "stateMutability": "nonpayable",
      "type": "function"
    },
    {
      "inputs": [],
      "payable": false,
      "stateMutability": "nonpayable",
      "type": "constructor"
    },
    {
      "payable": true,
      "stateMutability": "payable",
      "type": "fallback"
    },
    {
      "anonymous": false,
      "inputs": [],
      "name": "LogContractDisabled",
      "type": "event"
    },
    {
      "anonymous": false,
      "inputs": [],
      "name": "LogContractEnabled",
      "type": "event"
    },
    {
      "anonymous": false,
      "inputs": [
        {
          "indexed": true,
          "name": "account",
          "type": "address"
        }
      ],
      "name": "LogAdminAdded",
      "type": "event"
    },
    {
      "anonymous": false,
      "inputs": [
        {
          "indexed": true,
          "name": "account",
          "type": "address"
        }
      ],
      "name": "LogAdminRemoved",
      "type": "event"
    },
    {
      "anonymous": false,
      "inputs": [
        {
          "indexed": true,
          "name": "awardedTo",
          "type": "address"
        },
        {
          "indexed": true,
          "name": "minter",
          "type": "address"
        },
        {
          "indexed": false,
          "name": "amount",
          "type": "uint256"
        },
        {
          "indexed": false,
          "name": "ipfsHash",
          "type": "string"
        }
      ],
      "name": "LogAwarded",
      "type": "event"
    },
    {
      "anonymous": false,
      "inputs": [
        {
          "indexed": false,
          "name": "sellingAccount",
          "type": "address"
        },
        {
          "indexed": false,
          "name": "sellAmount",
          "type": "uint256"
        },
        {
          "indexed": false,
          "name": "ethReceived",
          "type": "uint256"
        }
      ],
      "name": "LogSell",
      "type": "event"
    },
    {
      "anonymous": false,
      "inputs": [
        {
          "indexed": false,
          "name": "oldContract",
          "type": "address"
        },
        {
          "indexed": false,
          "name": "newContract",
          "type": "address"
        }
      ],
      "name": "LogFundsContractChanged",
      "type": "event"
    },
    {
      "anonymous": false,
      "inputs": [
        {
          "indexed": true,
          "name": "to",
          "type": "address"
        },
        {
          "indexed": false,
          "name": "amount",
          "type": "uint256"
        }
      ],
      "name": "Mint",
      "type": "event"
    },
    {
      "anonymous": false,
      "inputs": [],
      "name": "MintFinished",
      "type": "event"
    },
    {
      "anonymous": false,
      "inputs": [
        {
          "indexed": true,
          "name": "previousOwner",
          "type": "address"
        }
      ],
      "name": "OwnershipRenounced",
      "type": "event"
    },
    {
      "anonymous": false,
      "inputs": [
        {
          "indexed": true,
          "name": "previousOwner",
          "type": "address"
        },
        {
          "indexed": true,
          "name": "newOwner",
          "type": "address"
        }
      ],
      "name": "OwnershipTransferred",
      "type": "event"
    },
    {
      "anonymous": false,
      "inputs": [
        {
          "indexed": true,
          "name": "from",
          "type": "address"
        },
        {
          "indexed": true,
          "name": "to",
          "type": "address"
        },
        {
          "indexed": false,
          "name": "value",
          "type": "uint256"
        }
      ],
      "name": "Transfer",
      "type": "event"
    },
    {
      "anonymous": false,
      "inputs": [
        {
          "indexed": true,
          "name": "owner",
          "type": "address"
        },
        {
          "indexed": true,
          "name": "spender",
          "type": "address"
        },
        {
          "indexed": false,
          "name": "value",
          "type": "uint256"
        }
      ],
      "name": "Approval",
      "type": "event"
    },
    {
      "constant": false,
      "inputs": [
        {
          "name": "_account",
          "type": "address"
        },
        {
          "name": "_amount",
          "type": "uint256"
        },
        {
          "name": "_ipfsHash",
          "type": "string"
        }
      ],
      "name": "award",
      "outputs": [],
      "payable": false,
      "stateMutability": "nonpayable",
      "type": "function"
    },
    {
      "constant": false,
      "inputs": [
        {
          "name": "_amount",
          "type": "uint256"
        }
      ],
      "name": "sell",
      "outputs": [
        {
          "name": "",
          "type": "bool"
        }
      ],
      "payable": false,
      "stateMutability": "nonpayable",
      "type": "function"
    },
    {
      "constant": true,
      "inputs": [
        {
          "name": "_sellAmount",
          "type": "uint256"
        },
        {
          "name": "_tokenBalance",
          "type": "uint256"
        }
      ],
      "name": "calculateSellReturn",
      "outputs": [
        {
          "name": "",
          "type": "uint256"
        }
      ],
      "payable": false,
      "stateMutability": "view",
      "type": "function"
    },
    {
      "constant": false,
      "inputs": [
        {
          "name": "_contract",
          "type": "address"
        }
      ],
      "name": "setFundsContract",
      "outputs": [],
      "payable": false,
      "stateMutability": "nonpayable",
      "type": "function"
    },
    {
      "constant": false,
      "inputs": [],
      "name": "emergencyStop",
      "outputs": [
        {
          "name": "",
          "type": "bool"
        }
      ],
      "payable": false,
      "stateMutability": "nonpayable",
      "type": "function"
    },
    {
      "constant": false,
      "inputs": [],
      "name": "resumeContract",
      "outputs": [
        {
          "name": "",
          "type": "bool"
        }
      ],
      "payable": false,
      "stateMutability": "nonpayable",
      "type": "function"
    },
    {
      "constant": false,
      "inputs": [
        {
          "name": "_account",
          "type": "address"
        }
      ],
      "name": "addAdmin",
      "outputs": [],
      "payable": false,
      "stateMutability": "nonpayable",
      "type": "function"
    },
    {
      "constant": false,
      "inputs": [
        {
          "name": "_account",
          "type": "address"
        }
      ],
      "name": "removeAdmin",
      "outputs": [],
      "payable": false,
      "stateMutability": "nonpayable",
      "type": "function"
    },
    {
      "constant": true,
      "inputs": [
        {
          "name": "_account",
          "type": "address"
        }
      ],
      "name": "checkIfAdmin",
      "outputs": [
        {
          "name": "",
          "type": "bool"
        }
      ],
      "payable": false,
      "stateMutability": "view",
      "type": "function"
    },
    {
      "constant": false,
      "inputs": [
        {
          "name": "_account",
          "type": "address"
        },
        {
          "name": "_amount",
          "type": "uint256"
        }
      ],
      "name": "burn",
      "outputs": [],
      "payable": false,
      "stateMutability": "nonpayable",
      "type": "function"
    },
    {
      "constant": true,
      "inputs": [],
      "name": "getSupply",
      "outputs": [
        {
          "name": "",
          "type": "uint256"
        }
      ],
      "payable": false,
      "stateMutability": "view",
      "type": "function"
    }
  ],
  "bytecode": "0x60806040526000600360146101000a81548160ff0219169083151502179055506040805190810160405280600a81526020017f4b68616e61546f6b656e00000000000000000000000000000000000000000000815250600490805190602001906200006c92919062000444565b506040805190810160405280600481526020017f4b484e410000000000000000000000000000000000000000000000000000000081525060059080519060200190620000ba92919062000444565b506012600660006101000a81548160ff021916908360ff160217905550681b1ae4d6e2ef500000600755670de0b6b3a76400006008556001600960006101000a81548160ff0219169083151502179055503480156200011857600080fd5b5033600360006101000a81548173ffffffffffffffffffffffffffffffffffffffff021916908373ffffffffffffffffffffffffffffffffffffffff1602179055506001600a60003373ffffffffffffffffffffffffffffffffffffffff1673ffffffffffffffffffffffffffffffffffffffff16815260200190815260200160002060006101000a81548160ff021916908315150217905550620001cf33600754620001d6640100000000026401000000009004565b50620004f3565b600060011515600a60003373ffffffffffffffffffffffffffffffffffffffff1673ffffffffffffffffffffffffffffffffffffffff16815260200190815260200160002060009054906101000a900460ff1615151415156200023857600080fd5b600360149054906101000a900460ff161515156200025557600080fd5b620002708383620002c8640100000000026401000000009004565b8273ffffffffffffffffffffffffffffffffffffffff167f0f6798a560793a54c3bcfe86a93cde1e73087d944c0ea20544137d4121396885836040518082815260200191505060405180910390a26001905092915050565b60008273ffffffffffffffffffffffffffffffffffffffff1614151515620002ef57600080fd5b6200031481600254620004276401000000000262002b70179091906401000000009004565b6002819055506200037b816000808573ffffffffffffffffffffffffffffffffffffffff1673ffffffffffffffffffffffffffffffffffffffff16815260200190815260200160002054620004276401000000000262002b70179091906401000000009004565b6000808473ffffffffffffffffffffffffffffffffffffffff1673ffffffffffffffffffffffffffffffffffffffff168152602001908152602001600020819055508173ffffffffffffffffffffffffffffffffffffffff16600073ffffffffffffffffffffffffffffffffffffffff167fddf252ad1be2c89b69c2b068fc378daa952ba7f163c4a11628f55a4df523b3ef836040518082815260200191505060405180910390a35050565b600081830190508281101515156200043b57fe5b80905092915050565b828054600181600116156101000203166002900490600052602060002090601f016020900481019282601f106200048757805160ff1916838001178555620004b8565b82800160010185558215620004b8579182015b82811115620004b75782518255916020019190600101906200049a565b5b509050620004c79190620004cb565b5090565b620004f091905b80821115620004ec576000816000905550600101620004d2565b5090565b90565b612f7d80620005036000396000f3006080604052600436106101a1576000357c0100000000000000000000000000000000000000000000000000000000900463ffffffff1680630161ca791461028557806305d2035b146102c857806306fdde03146102f7578063095ea7b3146103875780630c7814f1146103ec5780631785f53c1461047f57806318160ddd146104c2578063217fe020146104ed57806323b872dd146105385780632ff2e9dc146105bd578063313ce567146105e857806340c10f191461061957806341b3a0d91461067e57806363a599a4146106ad57806366188463146106dc5780636c9c2faf146107415780636ec6484e1461076c57806370480275146107c357806370a0823114610806578063715018a61461085d5780637d64bcb4146108745780638da5cb5b146108a357806395d89b41146108fa5780639dc29fac1461098a578063a9059cbb146109d7578063c4bc5da514610a3c578063d31bcc0114610a6b578063d73dd62314610a96578063d9fa9c1a14610afb578063da2d3d6914610b56578063dd62ed3e14610bb1578063e4849b3214610c28578063f2fde38b14610c6d575b600960009054906101000a900460ff1615156101bc57600080fd5b600073ffffffffffffffffffffffffffffffffffffffff16600960019054906101000a900473ffffffffffffffffffffffffffffffffffffffff1673ffffffffffffffffffffffffffffffffffffffff161415151561021a57600080fd5b600960019054906101000a900473ffffffffffffffffffffffffffffffffffffffff1673ffffffffffffffffffffffffffffffffffffffff166108fc349081150290604051600060405180830381858888f19350505050158015610282573d6000803e3d6000fd5b50005b34801561029157600080fd5b506102c6600480360381019080803573ffffffffffffffffffffffffffffffffffffffff169060200190929190505050610cb0565b005b3480156102d457600080fd5b506102dd610e0f565b604051808215151515815260200191505060405180910390f35b34801561030357600080fd5b5061030c610e22565b6040518080602001828103825283818151815260200191508051906020019080838360005b8381101561034c578082015181840152602081019050610331565b50505050905090810190601f1680156103795780820380516001836020036101000a031916815260200191505b509250505060405180910390f35b34801561039357600080fd5b506103d2600480360381019080803573ffffffffffffffffffffffffffffffffffffffff16906020019092919080359060200190929190505050610ec0565b604051808215151515815260200191505060405180910390f35b3480156103f857600080fd5b5061047d600480360381019080803573ffffffffffffffffffffffffffffffffffffffff16906020019092919080359060200190929190803590602001908201803590602001908080601f0160208091040260200160405190810160405280939291908181526020018383808284378201915050505050509192919290505050610fb2565b005b34801561048b57600080fd5b506104c0600480360381019080803573ffffffffffffffffffffffffffffffffffffffff16906020019092919050505061110e565b005b3480156104ce57600080fd5b506104d7611268565b6040518082815260200191505060405180910390f35b3480156104f957600080fd5b506105226004803603810190808035906020019092919080359060200190929190505050611272565b6040518082815260200191505060405180910390f35b34801561054457600080fd5b506105a3600480360381019080803573ffffffffffffffffffffffffffffffffffffffff169060200190929190803573ffffffffffffffffffffffffffffffffffffffff169060200190929190803590602001909291905050506113ec565b604051808215151515815260200191505060405180910390f35b3480156105c957600080fd5b506105d26117a7565b6040518082815260200191505060405180910390f35b3480156105f457600080fd5b506105fd6117ad565b604051808260ff1660ff16815260200191505060405180910390f35b34801561062557600080fd5b50610664600480360381019080803573ffffffffffffffffffffffffffffffffffffffff169060200190929190803590602001909291905050506117c0565b604051808215151515815260200191505060405180910390f35b34801561068a57600080fd5b5061069361189f565b604051808215151515815260200191505060405180910390f35b3480156106b957600080fd5b506106c26118b2565b604051808215151515815260200191505060405180910390f35b3480156106e857600080fd5b50610727600480360381019080803573ffffffffffffffffffffffffffffffffffffffff16906020019092919080359060200190929190505050611a97565b604051808215151515815260200191505060405180910390f35b34801561074d57600080fd5b50610756611d29565b6040518082815260200191505060405180910390f35b34801561077857600080fd5b50610781611d38565b604051808273ffffffffffffffffffffffffffffffffffffffff1673ffffffffffffffffffffffffffffffffffffffff16815260200191505060405180910390f35b3480156107cf57600080fd5b50610804600480360381019080803573ffffffffffffffffffffffffffffffffffffffff169060200190929190505050611d5e565b005b34801561081257600080fd5b50610847600480360381019080803573ffffffffffffffffffffffffffffffffffffffff169060200190929190505050611e5b565b6040518082815260200191505060405180910390f35b34801561086957600080fd5b50610872611ea3565b005b34801561088057600080fd5b50610889611fa8565b604051808215151515815260200191505060405180910390f35b3480156108af57600080fd5b506108b8612070565b604051808273ffffffffffffffffffffffffffffffffffffffff1673ffffffffffffffffffffffffffffffffffffffff16815260200191505060405180910390f35b34801561090657600080fd5b5061090f612096565b6040518080602001828103825283818151815260200191508051906020019080838360005b8381101561094f578082015181840152602081019050610934565b50505050905090810190601f16801561097c5780820380516001836020036101000a031916815260200191505b509250505060405180910390f35b34801561099657600080fd5b506109d5600480360381019080803573ffffffffffffffffffffffffffffffffffffffff16906020019092919080359060200190929190505050612134565b005b3480156109e357600080fd5b50610a22600480360381019080803573ffffffffffffffffffffffffffffffffffffffff1690602001909291908035906020019092919050505061219e565b604051808215151515815260200191505060405180910390f35b348015610a4857600080fd5b50610a516123be565b604051808215151515815260200191505060405180910390f35b348015610a7757600080fd5b50610a8061258d565b6040518082815260200191505060405180910390f35b348015610aa257600080fd5b50610ae1600480360381019080803573ffffffffffffffffffffffffffffffffffffffff16906020019092919080359060200190929190505050612593565b604051808215151515815260200191505060405180910390f35b348015610b0757600080fd5b50610b3c600480360381019080803573ffffffffffffffffffffffffffffffffffffffff16906020019092919050505061278f565b604051808215151515815260200191505060405180910390f35b348015610b6257600080fd5b50610b97600480360381019080803573ffffffffffffffffffffffffffffffffffffffff1690602001909291905050506127e5565b604051808215151515815260200191505060405180910390f35b348015610bbd57600080fd5b50610c12600480360381019080803573ffffffffffffffffffffffffffffffffffffffff169060200190929190803573ffffffffffffffffffffffffffffffffffffffff169060200190929190505050612805565b6040518082815260200191505060405180910390f35b348015610c3457600080fd5b50610c536004803603810190808035906020019092919050505061288c565b604051808215151515815260200191505060405180910390f35b348015610c7957600080fd5b50610cae600480360381019080803573ffffffffffffffffffffffffffffffffffffffff169060200190929190505050612aa1565b005b6000600360009054906101000a900473ffffffffffffffffffffffffffffffffffffffff1673ffffffffffffffffffffffffffffffffffffffff163373ffffffffffffffffffffffffffffffffffffffff16141515610d0e57600080fd5b600960019054906101000a900473ffffffffffffffffffffffffffffffffffffffff16905081600960016101000a81548173ffffffffffffffffffffffffffffffffffffffff021916908373ffffffffffffffffffffffffffffffffffffffff1602179055507f44bf780dbde9caac142e1041542c97577c63685e5679f7d2ec2f15e274ed89168183604051808373ffffffffffffffffffffffffffffffffffffffff1673ffffffffffffffffffffffffffffffffffffffff1681526020018273ffffffffffffffffffffffffffffffffffffffff1673ffffffffffffffffffffffffffffffffffffffff1681526020019250505060405180910390a15050565b600360149054906101000a900460ff1681565b60048054600181600116156101000203166002900480601f016020809104026020016040519081016040528092919081815260200182805460018160011615610100020316600290048015610eb85780601f10610e8d57610100808354040283529160200191610eb8565b820191906000526020600020905b815481529060010190602001808311610e9b57829003601f168201915b505050505081565b600081600160003373ffffffffffffffffffffffffffffffffffffffff1673ffffffffffffffffffffffffffffffffffffffff16815260200190815260200160002060008573ffffffffffffffffffffffffffffffffffffffff1673ffffffffffffffffffffffffffffffffffffffff168152602001908152602001600020819055508273ffffffffffffffffffffffffffffffffffffffff163373ffffffffffffffffffffffffffffffffffffffff167f8c5be1e5ebec7d5bd14f71427d1e84f3dd0314c0f7b2291e5b200ac8c7c3b925846040518082815260200191505060405180910390a36001905092915050565b60011515600a60003373ffffffffffffffffffffffffffffffffffffffff1673ffffffffffffffffffffffffffffffffffffffff16815260200190815260200160002060009054906101000a900460ff16151514151561101157600080fd5b600960009054906101000a900460ff16151561102c57600080fd5b61103683836117c0565b503373ffffffffffffffffffffffffffffffffffffffff168373ffffffffffffffffffffffffffffffffffffffff167f33a98f26f479e8ddad9bb1b903a208dfe127d1deb3bce9f2f037e8ce54c5a23b84846040518083815260200180602001828103825283818151815260200191508051906020019080838360005b838110156110ce5780820151818401526020810190506110b3565b50505050905090810190601f1680156110fb5780820380516001836020036101000a031916815260200191505b50935050505060405180910390a3505050565b60011515600a60003373ffffffffffffffffffffffffffffffffffffffff1673ffffffffffffffffffffffffffffffffffffffff16815260200190815260200160002060009054906101000a900460ff16151514151561116d57600080fd5b600360009054906101000a900473ffffffffffffffffffffffffffffffffffffffff1673ffffffffffffffffffffffffffffffffffffffff168173ffffffffffffffffffffffffffffffffffffffff16141515156111ca57600080fd5b6000600a60008373ffffffffffffffffffffffffffffffffffffffff1673ffffffffffffffffffffffffffffffffffffffff16815260200190815260200160002060006101000a81548160ff0219169083151502179055508073ffffffffffffffffffffffffffffffffffffffff167ff8fcbbc219e48667a19933651e37be65424d04b186ced0baaa6055803c6a6ba360405160405180910390a250565b6000600254905090565b60008060008060008073ffffffffffffffffffffffffffffffffffffffff16600960019054906101000a900473ffffffffffffffffffffffffffffffffffffffff1673ffffffffffffffffffffffffffffffffffffffff16141515156112d757600080fd5b600854600960019054906101000a900473ffffffffffffffffffffffffffffffffffffffff1673ffffffffffffffffffffffffffffffffffffffff16311015151561132157600080fd5b86861015151561133057600080fd5b611338611d29565b9350670de0b6b3a764000092506113926002600960019054906101000a900473ffffffffffffffffffffffffffffffffffffffff1673ffffffffffffffffffffffffffffffffffffffff1631612b0990919063ffffffff16565b91506113dd836113cf846113c1886113b3898e612b1f90919063ffffffff16565b612b0990919063ffffffff16565b612b1f90919063ffffffff16565b612b0990919063ffffffff16565b90508094505050505092915050565b60008060008573ffffffffffffffffffffffffffffffffffffffff1673ffffffffffffffffffffffffffffffffffffffff16815260200190815260200160002054821115151561143b57600080fd5b600160008573ffffffffffffffffffffffffffffffffffffffff1673ffffffffffffffffffffffffffffffffffffffff16815260200190815260200160002060003373ffffffffffffffffffffffffffffffffffffffff1673ffffffffffffffffffffffffffffffffffffffff1681526020019081526020016000205482111515156114c657600080fd5b600073ffffffffffffffffffffffffffffffffffffffff168373ffffffffffffffffffffffffffffffffffffffff161415151561150257600080fd5b611553826000808773ffffffffffffffffffffffffffffffffffffffff1673ffffffffffffffffffffffffffffffffffffffff16815260200190815260200160002054612b5790919063ffffffff16565b6000808673ffffffffffffffffffffffffffffffffffffffff1673ffffffffffffffffffffffffffffffffffffffff168152602001908152602001600020819055506115e6826000808673ffffffffffffffffffffffffffffffffffffffff1673ffffffffffffffffffffffffffffffffffffffff16815260200190815260200160002054612b7090919063ffffffff16565b6000808573ffffffffffffffffffffffffffffffffffffffff1673ffffffffffffffffffffffffffffffffffffffff168152602001908152602001600020819055506116b782600160008773ffffffffffffffffffffffffffffffffffffffff1673ffffffffffffffffffffffffffffffffffffffff16815260200190815260200160002060003373ffffffffffffffffffffffffffffffffffffffff1673ffffffffffffffffffffffffffffffffffffffff16815260200190815260200160002054612b5790919063ffffffff16565b600160008673ffffffffffffffffffffffffffffffffffffffff1673ffffffffffffffffffffffffffffffffffffffff16815260200190815260200160002060003373ffffffffffffffffffffffffffffffffffffffff1673ffffffffffffffffffffffffffffffffffffffff168152602001908152602001600020819055508273ffffffffffffffffffffffffffffffffffffffff168473ffffffffffffffffffffffffffffffffffffffff167fddf252ad1be2c89b69c2b068fc378daa952ba7f163c4a11628f55a4df523b3ef846040518082815260200191505060405180910390a3600190509392505050565b60075481565b600660009054906101000a900460ff1681565b600060011515600a60003373ffffffffffffffffffffffffffffffffffffffff1673ffffffffffffffffffffffffffffffffffffffff16815260200190815260200160002060009054906101000a900460ff16151514151561182157600080fd5b600360149054906101000a900460ff1615151561183d57600080fd5b6118478383612b8c565b8273ffffffffffffffffffffffffffffffffffffffff167f0f6798a560793a54c3bcfe86a93cde1e73087d944c0ea20544137d4121396885836040518082815260200191505060405180910390a26001905092915050565b600960009054906101000a900460ff1681565b600060011515600a60003373ffffffffffffffffffffffffffffffffffffffff1673ffffffffffffffffffffffffffffffffffffffff16815260200190815260200160002060009054906101000a900460ff16151514151561191357600080fd5b600960009054906101000a900460ff16151561192e57600080fd5b6000600960006101000a81548160ff021916908315150217905550600073ffffffffffffffffffffffffffffffffffffffff16600960019054906101000a900473ffffffffffffffffffffffffffffffffffffffff1673ffffffffffffffffffffffffffffffffffffffff16141515611a6457600960019054906101000a900473ffffffffffffffffffffffffffffffffffffffff1673ffffffffffffffffffffffffffffffffffffffff166363a599a46040518163ffffffff167c0100000000000000000000000000000000000000000000000000000000028152600401602060405180830381600087803b158015611a2757600080fd5b505af1158015611a3b573d6000803e3d6000fd5b505050506040513d6020811015611a5157600080fd5b8101908080519060200190929190505050505b7f687b37676ebe4283016bd9c65cf9b57739806755be23a2f5534d34a7ae915e8b60405160405180910390a16001905090565b600080600160003373ffffffffffffffffffffffffffffffffffffffff1673ffffffffffffffffffffffffffffffffffffffff16815260200190815260200160002060008573ffffffffffffffffffffffffffffffffffffffff1673ffffffffffffffffffffffffffffffffffffffff1681526020019081526020016000205490508083101515611ba9576000600160003373ffffffffffffffffffffffffffffffffffffffff1673ffffffffffffffffffffffffffffffffffffffff16815260200190815260200160002060008673ffffffffffffffffffffffffffffffffffffffff1673ffffffffffffffffffffffffffffffffffffffff16815260200190815260200160002081905550611c3d565b611bbc8382612b5790919063ffffffff16565b600160003373ffffffffffffffffffffffffffffffffffffffff1673ffffffffffffffffffffffffffffffffffffffff16815260200190815260200160002060008673ffffffffffffffffffffffffffffffffffffffff1673ffffffffffffffffffffffffffffffffffffffff168152602001908152602001600020819055505b8373ffffffffffffffffffffffffffffffffffffffff163373ffffffffffffffffffffffffffffffffffffffff167f8c5be1e5ebec7d5bd14f71427d1e84f3dd0314c0f7b2291e5b200ac8c7c3b925600160003373ffffffffffffffffffffffffffffffffffffffff1673ffffffffffffffffffffffffffffffffffffffff16815260200190815260200160002060008873ffffffffffffffffffffffffffffffffffffffff1673ffffffffffffffffffffffffffffffffffffffff168152602001908152602001600020546040518082815260200191505060405180910390a3600191505092915050565b6000611d33611268565b905090565b600960019054906101000a900473ffffffffffffffffffffffffffffffffffffffff1681565b60011515600a60003373ffffffffffffffffffffffffffffffffffffffff1673ffffffffffffffffffffffffffffffffffffffff16815260200190815260200160002060009054906101000a900460ff161515141515611dbd57600080fd5b6001600a60008373ffffffffffffffffffffffffffffffffffffffff1673ffffffffffffffffffffffffffffffffffffffff16815260200190815260200160002060006101000a81548160ff0219169083151502179055508073ffffffffffffffffffffffffffffffffffffffff167f873b6546df550db4e197c19f621af58777f109107ed897212d3ab52d5a9f2ede60405160405180910390a250565b60008060008373ffffffffffffffffffffffffffffffffffffffff1673ffffffffffffffffffffffffffffffffffffffff168152602001908152602001600020549050919050565b600360009054906101000a900473ffffffffffffffffffffffffffffffffffffffff1673ffffffffffffffffffffffffffffffffffffffff163373ffffffffffffffffffffffffffffffffffffffff16141515611eff57600080fd5b600360009054906101000a900473ffffffffffffffffffffffffffffffffffffffff1673ffffffffffffffffffffffffffffffffffffffff167ff8df31144d9c2f0f6b59d69b8b98abd5459d07f2742c4df920b25aae33c6482060405160405180910390a26000600360006101000a81548173ffffffffffffffffffffffffffffffffffffffff021916908373ffffffffffffffffffffffffffffffffffffffff160217905550565b6000600360009054906101000a900473ffffffffffffffffffffffffffffffffffffffff1673ffffffffffffffffffffffffffffffffffffffff163373ffffffffffffffffffffffffffffffffffffffff1614151561200657600080fd5b600360149054906101000a900460ff1615151561202257600080fd5b6001600360146101000a81548160ff0219169083151502179055507fae5184fba832cb2b1f702aca6117b8d265eaf03ad33eb133f19dde0f5920fa0860405160405180910390a16001905090565b600360009054906101000a900473ffffffffffffffffffffffffffffffffffffffff1681565b60058054600181600116156101000203166002900480601f01602080910402602001604051908101604052809291908181526020018280546001816001161561010002031660029004801561212c5780601f106121015761010080835404028352916020019161212c565b820191906000526020600020905b81548152906001019060200180831161210f57829003601f168201915b505050505081565b600360009054906101000a900473ffffffffffffffffffffffffffffffffffffffff1673ffffffffffffffffffffffffffffffffffffffff163373ffffffffffffffffffffffffffffffffffffffff1614151561219057600080fd5b61219a8282612cca565b5050565b60008060003373ffffffffffffffffffffffffffffffffffffffff1673ffffffffffffffffffffffffffffffffffffffff1681526020019081526020016000205482111515156121ed57600080fd5b600073ffffffffffffffffffffffffffffffffffffffff168373ffffffffffffffffffffffffffffffffffffffff161415151561222957600080fd5b61227a826000803373ffffffffffffffffffffffffffffffffffffffff1673ffffffffffffffffffffffffffffffffffffffff16815260200190815260200160002054612b5790919063ffffffff16565b6000803373ffffffffffffffffffffffffffffffffffffffff1673ffffffffffffffffffffffffffffffffffffffff1681526020019081526020016000208190555061230d826000808673ffffffffffffffffffffffffffffffffffffffff1673ffffffffffffffffffffffffffffffffffffffff16815260200190815260200160002054612b7090919063ffffffff16565b6000808573ffffffffffffffffffffffffffffffffffffffff1673ffffffffffffffffffffffffffffffffffffffff168152602001908152602001600020819055508273ffffffffffffffffffffffffffffffffffffffff163373ffffffffffffffffffffffffffffffffffffffff167fddf252ad1be2c89b69c2b068fc378daa952ba7f163c4a11628f55a4df523b3ef846040518082815260200191505060405180910390a36001905092915050565b600060011515600a60003373ffffffffffffffffffffffffffffffffffffffff1673ffffffffffffffffffffffffffffffffffffffff16815260200190815260200160002060009054906101000a900460ff16151514151561241f57600080fd5b600073ffffffffffffffffffffffffffffffffffffffff16600960019054906101000a900473ffffffffffffffffffffffffffffffffffffffff1673ffffffffffffffffffffffffffffffffffffffff161415151561247d57600080fd5b6001600960006101000a81548160ff021916908315150217905550600960019054906101000a900473ffffffffffffffffffffffffffffffffffffffff1673ffffffffffffffffffffffffffffffffffffffff1663c4bc5da56040518163ffffffff167c0100000000000000000000000000000000000000000000000000000000028152600401602060405180830381600087803b15801561251e57600080fd5b505af1158015612532573d6000803e3d6000fd5b505050506040513d602081101561254857600080fd5b8101908080519060200190929190505050507fa90445109fa4faeb8720a8d1c9cd6865d77479d2056b9d57fd176b58f572b41860405160405180910390a16001905090565b60085481565b600061262482600160003373ffffffffffffffffffffffffffffffffffffffff1673ffffffffffffffffffffffffffffffffffffffff16815260200190815260200160002060008673ffffffffffffffffffffffffffffffffffffffff1673ffffffffffffffffffffffffffffffffffffffff16815260200190815260200160002054612b7090919063ffffffff16565b600160003373ffffffffffffffffffffffffffffffffffffffff1673ffffffffffffffffffffffffffffffffffffffff16815260200190815260200160002060008573ffffffffffffffffffffffffffffffffffffffff1673ffffffffffffffffffffffffffffffffffffffff168152602001908152602001600020819055508273ffffffffffffffffffffffffffffffffffffffff163373ffffffffffffffffffffffffffffffffffffffff167f8c5be1e5ebec7d5bd14f71427d1e84f3dd0314c0f7b2291e5b200ac8c7c3b925600160003373ffffffffffffffffffffffffffffffffffffffff1673ffffffffffffffffffffffffffffffffffffffff16815260200190815260200160002060008773ffffffffffffffffffffffffffffffffffffffff1673ffffffffffffffffffffffffffffffffffffffff168152602001908152602001600020546040518082815260200191505060405180910390a36001905092915050565b6000600a60008373ffffffffffffffffffffffffffffffffffffffff1673ffffffffffffffffffffffffffffffffffffffff16815260200190815260200160002060009054906101000a900460ff169050919050565b600a6020528060005260406000206000915054906101000a900460ff1681565b6000600160008473ffffffffffffffffffffffffffffffffffffffff1673ffffffffffffffffffffffffffffffffffffffff16815260200190815260200160002060008373ffffffffffffffffffffffffffffffffffffffff1673ffffffffffffffffffffffffffffffffffffffff16815260200190815260200160002054905092915050565b6000806000600960009054906101000a900460ff1615156128ac57600080fd5b600073ffffffffffffffffffffffffffffffffffffffff16600960019054906101000a900473ffffffffffffffffffffffffffffffffffffffff1673ffffffffffffffffffffffffffffffffffffffff161415151561290a57600080fd5b61291333611e5b565b91506000841180156129255750838210155b151561293057600080fd5b61293a8483611272565b90506129463385612cca565b600960019054906101000a900473ffffffffffffffffffffffffffffffffffffffff1673ffffffffffffffffffffffffffffffffffffffff16633436860282336040518363ffffffff167c0100000000000000000000000000000000000000000000000000000000028152600401808381526020018273ffffffffffffffffffffffffffffffffffffffff1673ffffffffffffffffffffffffffffffffffffffff16815260200192505050600060405180830381600087803b158015612a0b57600080fd5b505af1158015612a1f573d6000803e3d6000fd5b505050507f739b78ed09e4722db227eef0fca68d364a5a407b45f30889d7da8e9a3f856638338583604051808473ffffffffffffffffffffffffffffffffffffffff1673ffffffffffffffffffffffffffffffffffffffff168152602001838152602001828152602001935050505060405180910390a1600192505050919050565b600360009054906101000a900473ffffffffffffffffffffffffffffffffffffffff1673ffffffffffffffffffffffffffffffffffffffff163373ffffffffffffffffffffffffffffffffffffffff16141515612afd57600080fd5b612b0681612e55565b50565b60008183811515612b1657fe5b04905092915050565b600080831415612b325760009050612b51565b8183029050818382811515612b4357fe5b04141515612b4d57fe5b8090505b92915050565b6000828211151515612b6557fe5b818303905092915050565b60008183019050828110151515612b8357fe5b80905092915050565b60008273ffffffffffffffffffffffffffffffffffffffff1614151515612bb257600080fd5b612bc781600254612b7090919063ffffffff16565b600281905550612c1e816000808573ffffffffffffffffffffffffffffffffffffffff1673ffffffffffffffffffffffffffffffffffffffff16815260200190815260200160002054612b7090919063ffffffff16565b6000808473ffffffffffffffffffffffffffffffffffffffff1673ffffffffffffffffffffffffffffffffffffffff168152602001908152602001600020819055508173ffffffffffffffffffffffffffffffffffffffff16600073ffffffffffffffffffffffffffffffffffffffff167fddf252ad1be2c89b69c2b068fc378daa952ba7f163c4a11628f55a4df523b3ef836040518082815260200191505060405180910390a35050565b60008273ffffffffffffffffffffffffffffffffffffffff1614151515612cf057600080fd5b6000808373ffffffffffffffffffffffffffffffffffffffff1673ffffffffffffffffffffffffffffffffffffffff168152602001908152602001600020548111151515612d3d57600080fd5b612d5281600254612b5790919063ffffffff16565b600281905550612da9816000808573ffffffffffffffffffffffffffffffffffffffff1673ffffffffffffffffffffffffffffffffffffffff16815260200190815260200160002054612b5790919063ffffffff16565b6000808473ffffffffffffffffffffffffffffffffffffffff1673ffffffffffffffffffffffffffffffffffffffff16815260200190815260200160002081905550600073ffffffffffffffffffffffffffffffffffffffff168273ffffffffffffffffffffffffffffffffffffffff167fddf252ad1be2c89b69c2b068fc378daa952ba7f163c4a11628f55a4df523b3ef836040518082815260200191505060405180910390a35050565b600073ffffffffffffffffffffffffffffffffffffffff168173ffffffffffffffffffffffffffffffffffffffff1614151515612e9157600080fd5b8073ffffffffffffffffffffffffffffffffffffffff16600360009054906101000a900473ffffffffffffffffffffffffffffffffffffffff1673ffffffffffffffffffffffffffffffffffffffff167f8be0079c531659141344cd1fd0a4f28419497f9722a3daafe3b4186f6b6457e060405160405180910390a380600360006101000a81548173ffffffffffffffffffffffffffffffffffffffff021916908373ffffffffffffffffffffffffffffffffffffffff160217905550505600a165627a7a723058209b32b9aada17fc0a56caef2fb5506576bda573cb2e4a541f32ab971c9889f7e50029",
  "source": "pragma solidity ^0.4.24;\n\nimport 'openzeppelin-solidity/contracts/token/ERC20/MintableToken.sol';\nimport \"openzeppelin-solidity/contracts/math/SafeMath.sol\";\nimport './BondingCurveFunds.sol';\n\n/**\n * @title Proof of Concept contract for the Khana framework\n * @author David Truong <david@truong.vc>\n * @dev This is a mintable token with a group of admins who can mint them (i.e.\n * award them) to community members, record the IPFS hash of the reasons associated\n * with each minting, and a simple bonding curve where token holders can redeem\n * ETH for tokens they've received.\n * For more information, see: [TBC]\n */\n\ncontract KhanaToken is MintableToken {\n    using SafeMath for uint256;\n\n    string public name = \"KhanaToken\";\n    string public symbol = \"KHNA\";\n    uint8 public decimals = 18;\n    uint public INITIAL_SUPPLY = 500000000000000000000;\n    uint public minimumEthBalance = 1000000000000000000; // Minimum ETH contract should have\n\n    bool public contractEnabled = true;\n\n    address public fundsContract;\n\n    mapping (address => bool) public adminAccounts;\n\n    event LogContractDisabled();\n    event LogContractEnabled();\n    event LogAdminAdded(address indexed account);\n    event LogAdminRemoved(address indexed account);\n    event LogAwarded(\n        address indexed awardedTo,\n        address indexed minter,\n        uint amount,\n        string ipfsHash\n        );\n    event LogSell(\n        address sellingAccount,\n        uint256 sellAmount,\n        uint256 ethReceived\n        );\n    event LogFundsContractChanged(\n        address oldContract,\n        address newContract\n        );\n\n    /**\n     * @dev The owner is automatically set by Ownable.sol. The owner is also added\n     * as an admin.\n     */\n    constructor() public {\n        adminAccounts[msg.sender] = true;\n        mint(msg.sender, INITIAL_SUPPLY);\n    }\n\n    /**\n     * @dev Throws if called by a non-admin account.\n     */\n    modifier onlyAdmins() {\n        require(adminAccounts[msg.sender] == true);\n        _;\n    }\n\n    /**\n     * @dev Throws if called by a non-admin account.\n     * @notice This modifier overrides the modifier of the same name in\n     * MintableToken.sol. We want to keep the safety of Zeppelin's mintableToken,\n     * but expand the usecase slightly with more admins with mint permissions.\n     */\n    modifier hasMintPermission() {\n        require(adminAccounts[msg.sender] == true);\n        _;\n    }\n\n    /**\n     * @dev Throws if called when contract has been disabled via 'emergencyStop()'.\n     */\n    modifier contractIsEnabled() {\n        require(contractEnabled);\n        _;\n    }\n\n    /**\n     * @dev Throws if called when contract has been disabled via 'emergencyStop()'.\n     */\n    modifier fundsContractIsValid() {\n        require(fundsContract != address(0));\n        _;\n    }\n\n    /**\n     * @dev The fallback function, which is used to 'fund' the token for\n     * liquidity of the token (see 'sell' function).\n     * @notice Anyone can fund the token contract with ETH to increase the 'pot'\n     * associated with the token. However this would normally be done by the\n     * community organisers, who may send a portion of sponsorship money or ticket\n     * sales from community organised events.\n     * The 'fundsContract' must be set to a valid address.\n     */\n    function () public contractIsEnabled payable fundsContractIsValid {\n        fundsContract.transfer(msg.value);\n    }\n\n    /**\n     * @dev Award tokens to users with relevant audit information in an IPFS file.\n     * @notice The IPFS hash should always be included with any reward of tokens,\n     * to ensure auditing of the minting process can be done at anytime in the future.\n     * The event emitted must also specify the IPFS hash so that it is permanently\n     * recorded on the blockchain, and that the IPFS hash related to the most up\n     * to date audit log can be found easily.\n     * We do not want to record the IPFS hashes in an array on the blockchain as\n     * it would end up costing too much, hence we 'store' them in emitted event logs.\n     * @param _account The address of the user to awarded.\n     * @param _amount The amount to be awarded.\n     * @param _ipfsHash The IPFS hash of the latest audit log, which includes the\n     * details and reason for the current award of tokens.\n     */\n    function award(\n        address _account,\n        uint256 _amount,\n        string _ipfsHash\n    )\n        public\n        onlyAdmins\n        contractIsEnabled\n    {\n        mint(_account, _amount);\n        emit LogAwarded(_account, msg.sender, _amount, _ipfsHash);\n    }\n\n    /**\n     * @dev Allow token holders to sell their tokens in return for ETH.\n     * @notice At the moment the calculation for how much ETH is returned is very\n     * simplistic. Depending on the portion of the supply they hold, they can\n     * liquidate a larger amount of the ETH 'pot', to a maximum of 50% of the pot.\n     * E.g. User A holds 25% of the supply and the ETH pot is 100 ETH. Therefore\n     * they can sell all their tokens for a maximum amount of 12.5 ETH\n     * (0.25 * 0.5 * 100 = 12.5 ETH). See 'whitepaper' for more details around\n     * game theory and how this may work as an incentive mechanism. This will\n     * likely change in the future to a more complex bonding curve implementation.\n     * @param _amount The amount to sell.\n     */\n    function sell(uint256 _amount) public contractIsEnabled fundsContractIsValid returns (bool) {\n        uint256 tokenBalanceOfSender = balanceOf(msg.sender);\n        require(_amount > 0 && tokenBalanceOfSender >= _amount);\n\n        uint256 redeemableEth = calculateSellReturn(_amount, tokenBalanceOfSender);\n        _burn(msg.sender, _amount);\n\n        BondingCurveFunds(fundsContract).sendEth(redeemableEth, msg.sender);\n\n        emit LogSell(msg.sender, _amount, redeemableEth);\n\n        return true;\n    }\n\n    /**\n     * @dev Allow token hold to calculate the potential ETH return they will receive\n     * from selling a certain amount of tokens.\n     * @notice This is also used in the 'sell' function. See above for discussion.\n     * @param _sellAmount The amount of tokens to sell.\n     * @param _tokenBalance Their entire token balance.\n     */\n    function calculateSellReturn(\n        uint256 _sellAmount,\n        uint256 _tokenBalance\n    )\n        public\n        fundsContractIsValid\n        view\n        returns (uint256)\n    {\n        require(fundsContract.balance >= minimumEthBalance);\n        require(_tokenBalance >= _sellAmount);\n\n        uint256 tokenSupply = getSupply();\n\n        // EVM doesn't deal with floating points well, so multiple and divide by\n        // 10e18 to retain accuracy\n        uint256 multiplier = 10**18;\n\n        // User can redeem a maximum 50% of the 'pot' if they own 100% of the supply\n        uint256 maxRedeemableEth = fundsContract.balance.div(2);\n\n        // Essentially ((tokens i have) / (total supply)) * (ETH in contract * 0.5),\n        // using a multiplier due to EVM constraints\n        uint256 redeemableEth = (_sellAmount.mul(multiplier).div(tokenSupply).mul(maxRedeemableEth)).div(multiplier);\n\n        return redeemableEth;\n    }\n\n    /**\n     * @dev Set the 'fundsContract' to a different contract address that is used\n     * in the bonding curve.\n     * @notice Only the owner can change this value.\n     * @param _contract The contract of the new funds contract\n     */\n    function setFundsContract(address _contract) public onlyOwner {\n        address oldContract = fundsContract;\n        fundsContract = _contract;\n        emit LogFundsContractChanged(oldContract, _contract);\n    }\n\n    /**\n     * @dev An emergency stop that can only be called by the admins.\n     * @notice This is an alternative to 'finishMinting()' in MintableToken.sol\n     * to enable admins to stop the minting process (not just the owner), and also\n     * disables selling the token into the bonding curve contract.\n     * Having a valid 'fundsContract' is optional to set the emergency stop.\n     * @return A bool indicating if the emergency stop was successful.\n     */\n    // override onlyOwner in mintableToken\n    function emergencyStop() public onlyAdmins contractIsEnabled returns (bool) {\n        contractEnabled = false;\n        if (fundsContract != address(0)) {\n            BondingCurveFunds(fundsContract).emergencyStop();\n        }\n        emit LogContractDisabled();\n        return true;\n    }\n\n    /**\n     * @dev Restore contract functionality, only callable by admins.\n     * @notice A valid 'fundsContract' must be set before resuming. This can be\n     * done via setFundsContract(address).\n     * @return A bool indicating if the resuming of minting was successful.\n     */\n    function resumeContract() public onlyAdmins fundsContractIsValid returns (bool) {\n        contractEnabled = true;\n        BondingCurveFunds(fundsContract).resumeContract();\n        emit LogContractEnabled();\n        return true;\n    }\n\n    /**\n     * @dev Add an admin.\n     * @param _account The address of the new admin.\n     */\n    function addAdmin(address _account) public onlyAdmins {\n        adminAccounts[_account] = true;\n        emit LogAdminAdded(_account);\n    }\n\n    /**\n     * @dev Remove an admin.\n     * @notice The original owner (i.e. contract creator) should always have the\n     * power to restore things, so cannot be removed as an admin. If the owner\n     * role needs to be transfered, then call 'transferOwnership()' in Ownable.sol.\n     * @param _account The address of the admin to be removed.\n     */\n    function removeAdmin(address _account) public onlyAdmins {\n        require(_account != owner);\n        adminAccounts[_account] = false;\n        emit LogAdminRemoved(_account);\n    }\n\n    /**\n     * @dev Check if a user is an admin.\n     * @param _account The address of the user to check.\n     * @return A bool indicating if the specified account is an admin.\n     */\n    function checkIfAdmin(address _account) public view returns (bool) {\n        return adminAccounts[_account];\n    }\n\n    /**\n     * @dev Burn tokens from a specific account.\n     * @notice This should be used very carefully, as it will affect the audit\n     * trail being saved in IPFS and the trust in being awarded the tokens.\n     * Still not sure if this function will remain enabled in future versions.\n     * For now, only the owner can burn tokens\n     * @param _account The address of the account to burn tokens.\n     * @param _amount The amount of tokens to burn.\n     */\n    function burn(\n        address _account,\n        uint256 _amount\n    ) public onlyOwner {\n        _burn(_account, _amount);\n    }\n\n    /**\n     * @dev Get the total supply of tokens in circulation.\n     * @return A uint256 specifying the total supply of tokens.\n     */\n    function getSupply() public view returns (uint256) {\n        return totalSupply();\n    }\n\n}\n",
  "sourcePath": "/Users/david/Documents/Documents - Davids MacBook Pro/GitHub/KhanaFramework/KhanaFramework/Khana POC/contracts/KhanaToken.sol",
  "compiler": {
    "name": "solc",
    "version": "0.4.24+commit.e67f0147.Emscripten.clang"
  },
  "schemaVersion": "2.0.1",
  "updatedAt": "2018-08-27T17:15:28.629Z"
}