{
  "contractName": "KhanaToken",
  "abi": [
    {
      "constant": true,
      "inputs": [],
      "name": "mintingFinished",
      "outputs": [
        {
          "name": "",
          "type": "bool"
        }
      ],
      "payable": false,
      "stateMutability": "view",
      "type": "function"
    },
    {
      "constant": true,
      "inputs": [],
      "name": "name",
      "outputs": [
        {
          "name": "",
          "type": "string"
        }
      ],
      "payable": false,
      "stateMutability": "view",
      "type": "function"
    },
    {
      "constant": false,
      "inputs": [
        {
          "name": "_spender",
          "type": "address"
        },
        {
          "name": "_value",
          "type": "uint256"
        }
      ],
      "name": "approve",
      "outputs": [
        {
          "name": "",
          "type": "bool"
        }
      ],
      "payable": false,
      "stateMutability": "nonpayable",
      "type": "function"
    },
    {
      "constant": true,
      "inputs": [],
      "name": "totalSupply",
      "outputs": [
        {
          "name": "",
          "type": "uint256"
        }
      ],
      "payable": false,
      "stateMutability": "view",
      "type": "function"
    },
    {
      "constant": false,
      "inputs": [
        {
          "name": "_from",
          "type": "address"
        },
        {
          "name": "_to",
          "type": "address"
        },
        {
          "name": "_value",
          "type": "uint256"
        }
      ],
      "name": "transferFrom",
      "outputs": [
        {
          "name": "",
          "type": "bool"
        }
      ],
      "payable": false,
      "stateMutability": "nonpayable",
      "type": "function"
    },
    {
      "constant": true,
      "inputs": [],
      "name": "decimals",
      "outputs": [
        {
          "name": "",
          "type": "uint8"
        }
      ],
      "payable": false,
      "stateMutability": "view",
      "type": "function"
    },
    {
      "constant": false,
      "inputs": [
        {
          "name": "_to",
          "type": "address"
        },
        {
          "name": "_amount",
          "type": "uint256"
        }
      ],
      "name": "mint",
      "outputs": [
        {
          "name": "",
          "type": "bool"
        }
      ],
      "payable": false,
      "stateMutability": "nonpayable",
      "type": "function"
    },
    {
      "constant": true,
      "inputs": [],
      "name": "contractEnabled",
      "outputs": [
        {
          "name": "",
          "type": "bool"
        }
      ],
      "payable": false,
      "stateMutability": "view",
      "type": "function"
    },
    {
      "constant": false,
      "inputs": [
        {
          "name": "_spender",
          "type": "address"
        },
        {
          "name": "_subtractedValue",
          "type": "uint256"
        }
      ],
      "name": "decreaseApproval",
      "outputs": [
        {
          "name": "",
          "type": "bool"
        }
      ],
      "payable": false,
      "stateMutability": "nonpayable",
      "type": "function"
    },
    {
      "constant": true,
      "inputs": [],
      "name": "fundsContract",
      "outputs": [
        {
          "name": "",
          "type": "address"
        }
      ],
      "payable": false,
      "stateMutability": "view",
      "type": "function"
    },
    {
      "constant": true,
      "inputs": [
        {
          "name": "_owner",
          "type": "address"
        }
      ],
      "name": "balanceOf",
      "outputs": [
        {
          "name": "",
          "type": "uint256"
        }
      ],
      "payable": false,
      "stateMutability": "view",
      "type": "function"
    },
    {
      "constant": false,
      "inputs": [],
      "name": "renounceOwnership",
      "outputs": [],
      "payable": false,
      "stateMutability": "nonpayable",
      "type": "function"
    },
    {
      "constant": false,
      "inputs": [],
      "name": "finishMinting",
      "outputs": [
        {
          "name": "",
          "type": "bool"
        }
      ],
      "payable": false,
      "stateMutability": "nonpayable",
      "type": "function"
    },
    {
      "constant": true,
      "inputs": [],
      "name": "owner",
      "outputs": [
        {
          "name": "",
          "type": "address"
        }
      ],
      "payable": false,
      "stateMutability": "view",
      "type": "function"
    },
    {
      "constant": true,
      "inputs": [],
      "name": "symbol",
      "outputs": [
        {
          "name": "",
          "type": "string"
        }
      ],
      "payable": false,
      "stateMutability": "view",
      "type": "function"
    },
    {
      "constant": false,
      "inputs": [
        {
          "name": "_to",
          "type": "address"
        },
        {
          "name": "_value",
          "type": "uint256"
        }
      ],
      "name": "transfer",
      "outputs": [
        {
          "name": "",
          "type": "bool"
        }
      ],
      "payable": false,
      "stateMutability": "nonpayable",
      "type": "function"
    },
    {
      "constant": true,
      "inputs": [],
      "name": "minimumEthBalance",
      "outputs": [
        {
          "name": "",
          "type": "uint256"
        }
      ],
      "payable": false,
      "stateMutability": "view",
      "type": "function"
    },
    {
      "constant": false,
      "inputs": [
        {
          "name": "_spender",
          "type": "address"
        },
        {
          "name": "_addedValue",
          "type": "uint256"
        }
      ],
      "name": "increaseApproval",
      "outputs": [
        {
          "name": "",
          "type": "bool"
        }
      ],
      "payable": false,
      "stateMutability": "nonpayable",
      "type": "function"
    },
    {
      "constant": true,
      "inputs": [
        {
          "name": "",
          "type": "address"
        }
      ],
      "name": "adminAccounts",
      "outputs": [
        {
          "name": "",
          "type": "bool"
        }
      ],
      "payable": false,
      "stateMutability": "view",
      "type": "function"
    },
    {
      "constant": true,
      "inputs": [
        {
          "name": "_owner",
          "type": "address"
        },
        {
          "name": "_spender",
          "type": "address"
        }
      ],
      "name": "allowance",
      "outputs": [
        {
          "name": "",
          "type": "uint256"
        }
      ],
      "payable": false,
      "stateMutability": "view",
      "type": "function"
    },
    {
      "constant": false,
      "inputs": [
        {
          "name": "_newOwner",
          "type": "address"
        }
      ],
      "name": "transferOwnership",
      "outputs": [],
      "payable": false,
      "stateMutability": "nonpayable",
      "type": "function"
    },
    {
      "inputs": [],
      "payable": false,
      "stateMutability": "nonpayable",
      "type": "constructor"
    },
    {
      "payable": true,
      "stateMutability": "payable",
      "type": "fallback"
    },
    {
      "anonymous": false,
      "inputs": [],
      "name": "LogContractDisabled",
      "type": "event"
    },
    {
      "anonymous": false,
      "inputs": [],
      "name": "LogContractEnabled",
      "type": "event"
    },
    {
      "anonymous": false,
      "inputs": [
        {
          "indexed": true,
          "name": "account",
          "type": "address"
        }
      ],
      "name": "LogAdminAdded",
      "type": "event"
    },
    {
      "anonymous": false,
      "inputs": [
        {
          "indexed": true,
          "name": "account",
          "type": "address"
        }
      ],
      "name": "LogAdminRemoved",
      "type": "event"
    },
    {
      "anonymous": false,
      "inputs": [
        {
          "indexed": true,
          "name": "awardedTo",
          "type": "address"
        },
        {
          "indexed": true,
          "name": "minter",
          "type": "address"
        },
        {
          "indexed": false,
          "name": "amount",
          "type": "uint256"
        },
        {
          "indexed": false,
          "name": "ipfsHash",
          "type": "string"
        }
      ],
      "name": "LogAwarded",
      "type": "event"
    },
    {
      "anonymous": false,
      "inputs": [
        {
          "indexed": false,
          "name": "sellingAccount",
          "type": "address"
        },
        {
          "indexed": false,
          "name": "sellAmount",
          "type": "uint256"
        },
        {
          "indexed": false,
          "name": "ethReceived",
          "type": "uint256"
        }
      ],
      "name": "LogSell",
      "type": "event"
    },
    {
      "anonymous": false,
      "inputs": [
        {
          "indexed": false,
          "name": "oldContract",
          "type": "address"
        },
        {
          "indexed": false,
          "name": "newContract",
          "type": "address"
        }
      ],
      "name": "LogFundsContractChanged",
      "type": "event"
    },
    {
      "anonymous": false,
      "inputs": [
        {
          "indexed": true,
          "name": "burnFrom",
          "type": "address"
        },
        {
          "indexed": false,
          "name": "amount",
          "type": "uint256"
        }
      ],
      "name": "LogBurned",
      "type": "event"
    },
    {
      "anonymous": false,
      "inputs": [
        {
          "indexed": true,
          "name": "to",
          "type": "address"
        },
        {
          "indexed": false,
          "name": "amount",
          "type": "uint256"
        }
      ],
      "name": "Mint",
      "type": "event"
    },
    {
      "anonymous": false,
      "inputs": [],
      "name": "MintFinished",
      "type": "event"
    },
    {
      "anonymous": false,
      "inputs": [
        {
          "indexed": true,
          "name": "previousOwner",
          "type": "address"
        }
      ],
      "name": "OwnershipRenounced",
      "type": "event"
    },
    {
      "anonymous": false,
      "inputs": [
        {
          "indexed": true,
          "name": "previousOwner",
          "type": "address"
        },
        {
          "indexed": true,
          "name": "newOwner",
          "type": "address"
        }
      ],
      "name": "OwnershipTransferred",
      "type": "event"
    },
    {
      "anonymous": false,
      "inputs": [
        {
          "indexed": true,
          "name": "owner",
          "type": "address"
        },
        {
          "indexed": true,
          "name": "spender",
          "type": "address"
        },
        {
          "indexed": false,
          "name": "value",
          "type": "uint256"
        }
      ],
      "name": "Approval",
      "type": "event"
    },
    {
      "anonymous": false,
      "inputs": [
        {
          "indexed": true,
          "name": "from",
          "type": "address"
        },
        {
          "indexed": true,
          "name": "to",
          "type": "address"
        },
        {
          "indexed": false,
          "name": "value",
          "type": "uint256"
        }
      ],
      "name": "Transfer",
      "type": "event"
    },
    {
      "constant": false,
      "inputs": [
        {
          "name": "_account",
          "type": "address"
        },
        {
          "name": "_amount",
          "type": "uint256"
        },
        {
          "name": "_ipfsHash",
          "type": "string"
        }
      ],
      "name": "award",
      "outputs": [],
      "payable": false,
      "stateMutability": "nonpayable",
      "type": "function"
    },
    {
      "constant": false,
      "inputs": [
        {
          "name": "_amount",
          "type": "uint256"
        }
      ],
      "name": "sell",
      "outputs": [
        {
          "name": "",
          "type": "bool"
        }
      ],
      "payable": false,
      "stateMutability": "nonpayable",
      "type": "function"
    },
    {
      "constant": true,
      "inputs": [
        {
          "name": "_sellAmount",
          "type": "uint256"
        },
        {
          "name": "_tokenBalance",
          "type": "uint256"
        }
      ],
      "name": "calculateSellReturn",
      "outputs": [
        {
          "name": "",
          "type": "uint256"
        }
      ],
      "payable": false,
      "stateMutability": "view",
      "type": "function"
    },
    {
      "constant": false,
      "inputs": [
        {
          "name": "_contract",
          "type": "address"
        }
      ],
      "name": "setFundsContract",
      "outputs": [],
      "payable": false,
      "stateMutability": "nonpayable",
      "type": "function"
    },
    {
      "constant": false,
      "inputs": [],
      "name": "emergencyStop",
      "outputs": [
        {
          "name": "",
          "type": "bool"
        }
      ],
      "payable": false,
      "stateMutability": "nonpayable",
      "type": "function"
    },
    {
      "constant": false,
      "inputs": [],
      "name": "resumeContract",
      "outputs": [
        {
          "name": "",
          "type": "bool"
        }
      ],
      "payable": false,
      "stateMutability": "nonpayable",
      "type": "function"
    },
    {
      "constant": false,
      "inputs": [
        {
          "name": "_account",
          "type": "address"
        }
      ],
      "name": "addAdmin",
      "outputs": [],
      "payable": false,
      "stateMutability": "nonpayable",
      "type": "function"
    },
    {
      "constant": false,
      "inputs": [
        {
          "name": "_account",
          "type": "address"
        }
      ],
      "name": "removeAdmin",
      "outputs": [],
      "payable": false,
      "stateMutability": "nonpayable",
      "type": "function"
    },
    {
      "constant": true,
      "inputs": [
        {
          "name": "_account",
          "type": "address"
        }
      ],
      "name": "checkIfAdmin",
      "outputs": [
        {
          "name": "",
          "type": "bool"
        }
      ],
      "payable": false,
      "stateMutability": "view",
      "type": "function"
    },
    {
      "constant": false,
      "inputs": [
        {
          "name": "_account",
          "type": "address"
        },
        {
          "name": "_amount",
          "type": "uint256"
        }
      ],
      "name": "burn",
      "outputs": [],
      "payable": false,
      "stateMutability": "nonpayable",
      "type": "function"
    },
    {
      "constant": true,
      "inputs": [],
      "name": "getSupply",
      "outputs": [
        {
          "name": "",
          "type": "uint256"
        }
      ],
      "payable": false,
      "stateMutability": "view",
      "type": "function"
    }
  ],
  "bytecode": "0x60806040526000600360146101000a81548160ff0219169083151502179055506040805190810160405280600a81526020017f4b68616e61546f6b656e00000000000000000000000000000000000000000000815250600490805190602001906200006c929190620001ab565b506040805190810160405280600481526020017f4b484e410000000000000000000000000000000000000000000000000000000081525060059080519060200190620000ba929190620001ab565b506012600660006101000a81548160ff021916908360ff160217905550670de0b6b3a76400006007556001600860006101000a81548160ff0219169083151502179055503480156200010b57600080fd5b5033600360006101000a81548173ffffffffffffffffffffffffffffffffffffffff021916908373ffffffffffffffffffffffffffffffffffffffff1602179055506001600960003373ffffffffffffffffffffffffffffffffffffffff1673ffffffffffffffffffffffffffffffffffffffff16815260200190815260200160002060006101000a81548160ff0219169083151502179055506200025a565b828054600181600116156101000203166002900490600052602060002090601f016020900481019282601f10620001ee57805160ff19168380011785556200021f565b828001600101855582156200021f579182015b828111156200021e57825182559160200191906001019062000201565b5b5090506200022e919062000232565b5090565b6200025791905b808211156200025357600081600090555060010162000239565b5090565b90565b612f35806200026a6000396000f300608060405260043610610196576000357c0100000000000000000000000000000000000000000000000000000000900463ffffffff1680630161ca791461027a57806305d2035b146102bd57806306fdde03146102ec578063095ea7b31461037c5780630c7814f1146103e15780631785f53c1461047457806318160ddd146104b7578063217fe020146104e257806323b872dd1461052d578063313ce567146105b257806340c10f19146105e357806341b3a0d91461064857806363a599a41461067757806366188463146106a65780636c9c2faf1461070b5780636ec6484e14610736578063704802751461078d57806370a08231146107d0578063715018a6146108275780637d64bcb41461083e5780638da5cb5b1461086d57806395d89b41146108c45780639dc29fac14610954578063a9059cbb146109a1578063c4bc5da514610a06578063d31bcc0114610a35578063d73dd62314610a60578063d9fa9c1a14610ac5578063da2d3d6914610b20578063dd62ed3e14610b7b578063e4849b3214610bf2578063f2fde38b14610c37575b600860009054906101000a900460ff1615156101b157600080fd5b600073ffffffffffffffffffffffffffffffffffffffff16600860019054906101000a900473ffffffffffffffffffffffffffffffffffffffff1673ffffffffffffffffffffffffffffffffffffffff161415151561020f57600080fd5b600860019054906101000a900473ffffffffffffffffffffffffffffffffffffffff1673ffffffffffffffffffffffffffffffffffffffff166108fc349081150290604051600060405180830381858888f19350505050158015610277573d6000803e3d6000fd5b50005b34801561028657600080fd5b506102bb600480360381019080803573ffffffffffffffffffffffffffffffffffffffff169060200190929190505050610c7a565b005b3480156102c957600080fd5b506102d2610dd9565b604051808215151515815260200191505060405180910390f35b3480156102f857600080fd5b50610301610dec565b6040518080602001828103825283818151815260200191508051906020019080838360005b83811015610341578082015181840152602081019050610326565b50505050905090810190601f16801561036e5780820380516001836020036101000a031916815260200191505b509250505060405180910390f35b34801561038857600080fd5b506103c7600480360381019080803573ffffffffffffffffffffffffffffffffffffffff16906020019092919080359060200190929190505050610e8a565b604051808215151515815260200191505060405180910390f35b3480156103ed57600080fd5b50610472600480360381019080803573ffffffffffffffffffffffffffffffffffffffff16906020019092919080359060200190929190803590602001908201803590602001908080601f0160208091040260200160405190810160405280939291908181526020018383808284378201915050505050509192919290505050610f7c565b005b34801561048057600080fd5b506104b5600480360381019080803573ffffffffffffffffffffffffffffffffffffffff1690602001909291905050506110d8565b005b3480156104c357600080fd5b506104cc611232565b6040518082815260200191505060405180910390f35b3480156104ee57600080fd5b50610517600480360381019080803590602001909291908035906020019092919050505061123c565b6040518082815260200191505060405180910390f35b34801561053957600080fd5b50610598600480360381019080803573ffffffffffffffffffffffffffffffffffffffff169060200190929190803573ffffffffffffffffffffffffffffffffffffffff169060200190929190803590602001909291905050506113b6565b604051808215151515815260200191505060405180910390f35b3480156105be57600080fd5b506105c7611771565b604051808260ff1660ff16815260200191505060405180910390f35b3480156105ef57600080fd5b5061062e600480360381019080803573ffffffffffffffffffffffffffffffffffffffff16906020019092919080359060200190929190505050611784565b604051808215151515815260200191505060405180910390f35b34801561065457600080fd5b5061065d61196d565b604051808215151515815260200191505060405180910390f35b34801561068357600080fd5b5061068c611980565b604051808215151515815260200191505060405180910390f35b3480156106b257600080fd5b506106f1600480360381019080803573ffffffffffffffffffffffffffffffffffffffff16906020019092919080359060200190929190505050611b65565b604051808215151515815260200191505060405180910390f35b34801561071757600080fd5b50610720611df7565b6040518082815260200191505060405180910390f35b34801561074257600080fd5b5061074b611e06565b604051808273ffffffffffffffffffffffffffffffffffffffff1673ffffffffffffffffffffffffffffffffffffffff16815260200191505060405180910390f35b34801561079957600080fd5b506107ce600480360381019080803573ffffffffffffffffffffffffffffffffffffffff169060200190929190505050611e2c565b005b3480156107dc57600080fd5b50610811600480360381019080803573ffffffffffffffffffffffffffffffffffffffff169060200190929190505050611f29565b6040518082815260200191505060405180910390f35b34801561083357600080fd5b5061083c611f71565b005b34801561084a57600080fd5b50610853612076565b604051808215151515815260200191505060405180910390f35b34801561087957600080fd5b5061088261213e565b604051808273ffffffffffffffffffffffffffffffffffffffff1673ffffffffffffffffffffffffffffffffffffffff16815260200191505060405180910390f35b3480156108d057600080fd5b506108d9612164565b6040518080602001828103825283818151815260200191508051906020019080838360005b838110156109195780820151818401526020810190506108fe565b50505050905090810190601f1680156109465780820380516001836020036101000a031916815260200191505b509250505060405180910390f35b34801561096057600080fd5b5061099f600480360381019080803573ffffffffffffffffffffffffffffffffffffffff16906020019092919080359060200190929190505050612202565b005b3480156109ad57600080fd5b506109ec600480360381019080803573ffffffffffffffffffffffffffffffffffffffff169060200190929190803590602001909291905050506122ba565b604051808215151515815260200191505060405180910390f35b348015610a1257600080fd5b50610a1b6124da565b604051808215151515815260200191505060405180910390f35b348015610a4157600080fd5b50610a4a6126a9565b6040518082815260200191505060405180910390f35b348015610a6c57600080fd5b50610aab600480360381019080803573ffffffffffffffffffffffffffffffffffffffff169060200190929190803590602001909291905050506126af565b604051808215151515815260200191505060405180910390f35b348015610ad157600080fd5b50610b06600480360381019080803573ffffffffffffffffffffffffffffffffffffffff1690602001909291905050506128ab565b604051808215151515815260200191505060405180910390f35b348015610b2c57600080fd5b50610b61600480360381019080803573ffffffffffffffffffffffffffffffffffffffff169060200190929190505050612901565b604051808215151515815260200191505060405180910390f35b348015610b8757600080fd5b50610bdc600480360381019080803573ffffffffffffffffffffffffffffffffffffffff169060200190929190803573ffffffffffffffffffffffffffffffffffffffff169060200190929190505050612921565b6040518082815260200191505060405180910390f35b348015610bfe57600080fd5b50610c1d600480360381019080803590602001909291905050506129a8565b604051808215151515815260200191505060405180910390f35b348015610c4357600080fd5b50610c78600480360381019080803573ffffffffffffffffffffffffffffffffffffffff169060200190929190505050612bbd565b005b6000600360009054906101000a900473ffffffffffffffffffffffffffffffffffffffff1673ffffffffffffffffffffffffffffffffffffffff163373ffffffffffffffffffffffffffffffffffffffff16141515610cd857600080fd5b600860019054906101000a900473ffffffffffffffffffffffffffffffffffffffff16905081600860016101000a81548173ffffffffffffffffffffffffffffffffffffffff021916908373ffffffffffffffffffffffffffffffffffffffff1602179055507f44bf780dbde9caac142e1041542c97577c63685e5679f7d2ec2f15e274ed89168183604051808373ffffffffffffffffffffffffffffffffffffffff1673ffffffffffffffffffffffffffffffffffffffff1681526020018273ffffffffffffffffffffffffffffffffffffffff1673ffffffffffffffffffffffffffffffffffffffff1681526020019250505060405180910390a15050565b600360149054906101000a900460ff1681565b60048054600181600116156101000203166002900480601f016020809104026020016040519081016040528092919081815260200182805460018160011615610100020316600290048015610e825780601f10610e5757610100808354040283529160200191610e82565b820191906000526020600020905b815481529060010190602001808311610e6557829003601f168201915b505050505081565b600081600260003373ffffffffffffffffffffffffffffffffffffffff1673ffffffffffffffffffffffffffffffffffffffff16815260200190815260200160002060008573ffffffffffffffffffffffffffffffffffffffff1673ffffffffffffffffffffffffffffffffffffffff168152602001908152602001600020819055508273ffffffffffffffffffffffffffffffffffffffff163373ffffffffffffffffffffffffffffffffffffffff167f8c5be1e5ebec7d5bd14f71427d1e84f3dd0314c0f7b2291e5b200ac8c7c3b925846040518082815260200191505060405180910390a36001905092915050565b60011515600960003373ffffffffffffffffffffffffffffffffffffffff1673ffffffffffffffffffffffffffffffffffffffff16815260200190815260200160002060009054906101000a900460ff161515141515610fdb57600080fd5b600860009054906101000a900460ff161515610ff657600080fd5b6110008383611784565b503373ffffffffffffffffffffffffffffffffffffffff168373ffffffffffffffffffffffffffffffffffffffff167f33a98f26f479e8ddad9bb1b903a208dfe127d1deb3bce9f2f037e8ce54c5a23b84846040518083815260200180602001828103825283818151815260200191508051906020019080838360005b8381101561109857808201518184015260208101905061107d565b50505050905090810190601f1680156110c55780820380516001836020036101000a031916815260200191505b50935050505060405180910390a3505050565b60011515600960003373ffffffffffffffffffffffffffffffffffffffff1673ffffffffffffffffffffffffffffffffffffffff16815260200190815260200160002060009054906101000a900460ff16151514151561113757600080fd5b600360009054906101000a900473ffffffffffffffffffffffffffffffffffffffff1673ffffffffffffffffffffffffffffffffffffffff168173ffffffffffffffffffffffffffffffffffffffff161415151561119457600080fd5b6000600960008373ffffffffffffffffffffffffffffffffffffffff1673ffffffffffffffffffffffffffffffffffffffff16815260200190815260200160002060006101000a81548160ff0219169083151502179055508073ffffffffffffffffffffffffffffffffffffffff167ff8fcbbc219e48667a19933651e37be65424d04b186ced0baaa6055803c6a6ba360405160405180910390a250565b6000600154905090565b60008060008060008073ffffffffffffffffffffffffffffffffffffffff16600860019054906101000a900473ffffffffffffffffffffffffffffffffffffffff1673ffffffffffffffffffffffffffffffffffffffff16141515156112a157600080fd5b600754600860019054906101000a900473ffffffffffffffffffffffffffffffffffffffff1673ffffffffffffffffffffffffffffffffffffffff1631101515156112eb57600080fd5b8686101515156112fa57600080fd5b611302611df7565b9350670de0b6b3a7640000925061135c6002600860019054906101000a900473ffffffffffffffffffffffffffffffffffffffff1673ffffffffffffffffffffffffffffffffffffffff1631612c2590919063ffffffff16565b91506113a7836113998461138b8861137d898e612c3b90919063ffffffff16565b612c2590919063ffffffff16565b612c3b90919063ffffffff16565b612c2590919063ffffffff16565b90508094505050505092915050565b60008060008573ffffffffffffffffffffffffffffffffffffffff1673ffffffffffffffffffffffffffffffffffffffff16815260200190815260200160002054821115151561140557600080fd5b600260008573ffffffffffffffffffffffffffffffffffffffff1673ffffffffffffffffffffffffffffffffffffffff16815260200190815260200160002060003373ffffffffffffffffffffffffffffffffffffffff1673ffffffffffffffffffffffffffffffffffffffff16815260200190815260200160002054821115151561149057600080fd5b600073ffffffffffffffffffffffffffffffffffffffff168373ffffffffffffffffffffffffffffffffffffffff16141515156114cc57600080fd5b61151d826000808773ffffffffffffffffffffffffffffffffffffffff1673ffffffffffffffffffffffffffffffffffffffff16815260200190815260200160002054612c7390919063ffffffff16565b6000808673ffffffffffffffffffffffffffffffffffffffff1673ffffffffffffffffffffffffffffffffffffffff168152602001908152602001600020819055506115b0826000808673ffffffffffffffffffffffffffffffffffffffff1673ffffffffffffffffffffffffffffffffffffffff16815260200190815260200160002054612c8c90919063ffffffff16565b6000808573ffffffffffffffffffffffffffffffffffffffff1673ffffffffffffffffffffffffffffffffffffffff1681526020019081526020016000208190555061168182600260008773ffffffffffffffffffffffffffffffffffffffff1673ffffffffffffffffffffffffffffffffffffffff16815260200190815260200160002060003373ffffffffffffffffffffffffffffffffffffffff1673ffffffffffffffffffffffffffffffffffffffff16815260200190815260200160002054612c7390919063ffffffff16565b600260008673ffffffffffffffffffffffffffffffffffffffff1673ffffffffffffffffffffffffffffffffffffffff16815260200190815260200160002060003373ffffffffffffffffffffffffffffffffffffffff1673ffffffffffffffffffffffffffffffffffffffff168152602001908152602001600020819055508273ffffffffffffffffffffffffffffffffffffffff168473ffffffffffffffffffffffffffffffffffffffff167fddf252ad1be2c89b69c2b068fc378daa952ba7f163c4a11628f55a4df523b3ef846040518082815260200191505060405180910390a3600190509392505050565b600660009054906101000a900460ff1681565b600060011515600960003373ffffffffffffffffffffffffffffffffffffffff1673ffffffffffffffffffffffffffffffffffffffff16815260200190815260200160002060009054906101000a900460ff1615151415156117e557600080fd5b600360149054906101000a900460ff1615151561180157600080fd5b61181682600154612c8c90919063ffffffff16565b60018190555061186d826000808673ffffffffffffffffffffffffffffffffffffffff1673ffffffffffffffffffffffffffffffffffffffff16815260200190815260200160002054612c8c90919063ffffffff16565b6000808573ffffffffffffffffffffffffffffffffffffffff1673ffffffffffffffffffffffffffffffffffffffff168152602001908152602001600020819055508273ffffffffffffffffffffffffffffffffffffffff167f0f6798a560793a54c3bcfe86a93cde1e73087d944c0ea20544137d4121396885836040518082815260200191505060405180910390a28273ffffffffffffffffffffffffffffffffffffffff16600073ffffffffffffffffffffffffffffffffffffffff167fddf252ad1be2c89b69c2b068fc378daa952ba7f163c4a11628f55a4df523b3ef846040518082815260200191505060405180910390a36001905092915050565b600860009054906101000a900460ff1681565b600060011515600960003373ffffffffffffffffffffffffffffffffffffffff1673ffffffffffffffffffffffffffffffffffffffff16815260200190815260200160002060009054906101000a900460ff1615151415156119e157600080fd5b600860009054906101000a900460ff1615156119fc57600080fd5b6000600860006101000a81548160ff021916908315150217905550600073ffffffffffffffffffffffffffffffffffffffff16600860019054906101000a900473ffffffffffffffffffffffffffffffffffffffff1673ffffffffffffffffffffffffffffffffffffffff16141515611b3257600860019054906101000a900473ffffffffffffffffffffffffffffffffffffffff1673ffffffffffffffffffffffffffffffffffffffff166363a599a46040518163ffffffff167c0100000000000000000000000000000000000000000000000000000000028152600401602060405180830381600087803b158015611af557600080fd5b505af1158015611b09573d6000803e3d6000fd5b505050506040513d6020811015611b1f57600080fd5b8101908080519060200190929190505050505b7f687b37676ebe4283016bd9c65cf9b57739806755be23a2f5534d34a7ae915e8b60405160405180910390a16001905090565b600080600260003373ffffffffffffffffffffffffffffffffffffffff1673ffffffffffffffffffffffffffffffffffffffff16815260200190815260200160002060008573ffffffffffffffffffffffffffffffffffffffff1673ffffffffffffffffffffffffffffffffffffffff1681526020019081526020016000205490508083101515611c77576000600260003373ffffffffffffffffffffffffffffffffffffffff1673ffffffffffffffffffffffffffffffffffffffff16815260200190815260200160002060008673ffffffffffffffffffffffffffffffffffffffff1673ffffffffffffffffffffffffffffffffffffffff16815260200190815260200160002081905550611d0b565b611c8a8382612c7390919063ffffffff16565b600260003373ffffffffffffffffffffffffffffffffffffffff1673ffffffffffffffffffffffffffffffffffffffff16815260200190815260200160002060008673ffffffffffffffffffffffffffffffffffffffff1673ffffffffffffffffffffffffffffffffffffffff168152602001908152602001600020819055505b8373ffffffffffffffffffffffffffffffffffffffff163373ffffffffffffffffffffffffffffffffffffffff167f8c5be1e5ebec7d5bd14f71427d1e84f3dd0314c0f7b2291e5b200ac8c7c3b925600260003373ffffffffffffffffffffffffffffffffffffffff1673ffffffffffffffffffffffffffffffffffffffff16815260200190815260200160002060008873ffffffffffffffffffffffffffffffffffffffff1673ffffffffffffffffffffffffffffffffffffffff168152602001908152602001600020546040518082815260200191505060405180910390a3600191505092915050565b6000611e01611232565b905090565b600860019054906101000a900473ffffffffffffffffffffffffffffffffffffffff1681565b60011515600960003373ffffffffffffffffffffffffffffffffffffffff1673ffffffffffffffffffffffffffffffffffffffff16815260200190815260200160002060009054906101000a900460ff161515141515611e8b57600080fd5b6001600960008373ffffffffffffffffffffffffffffffffffffffff1673ffffffffffffffffffffffffffffffffffffffff16815260200190815260200160002060006101000a81548160ff0219169083151502179055508073ffffffffffffffffffffffffffffffffffffffff167f873b6546df550db4e197c19f621af58777f109107ed897212d3ab52d5a9f2ede60405160405180910390a250565b60008060008373ffffffffffffffffffffffffffffffffffffffff1673ffffffffffffffffffffffffffffffffffffffff168152602001908152602001600020549050919050565b600360009054906101000a900473ffffffffffffffffffffffffffffffffffffffff1673ffffffffffffffffffffffffffffffffffffffff163373ffffffffffffffffffffffffffffffffffffffff16141515611fcd57600080fd5b600360009054906101000a900473ffffffffffffffffffffffffffffffffffffffff1673ffffffffffffffffffffffffffffffffffffffff167ff8df31144d9c2f0f6b59d69b8b98abd5459d07f2742c4df920b25aae33c6482060405160405180910390a26000600360006101000a81548173ffffffffffffffffffffffffffffffffffffffff021916908373ffffffffffffffffffffffffffffffffffffffff160217905550565b6000600360009054906101000a900473ffffffffffffffffffffffffffffffffffffffff1673ffffffffffffffffffffffffffffffffffffffff163373ffffffffffffffffffffffffffffffffffffffff161415156120d457600080fd5b600360149054906101000a900460ff161515156120f057600080fd5b6001600360146101000a81548160ff0219169083151502179055507fae5184fba832cb2b1f702aca6117b8d265eaf03ad33eb133f19dde0f5920fa0860405160405180910390a16001905090565b600360009054906101000a900473ffffffffffffffffffffffffffffffffffffffff1681565b60058054600181600116156101000203166002900480601f0160208091040260200160405190810160405280929190818152602001828054600181600116156101000203166002900480156121fa5780601f106121cf576101008083540402835291602001916121fa565b820191906000526020600020905b8154815290600101906020018083116121dd57829003601f168201915b505050505081565b600360009054906101000a900473ffffffffffffffffffffffffffffffffffffffff1673ffffffffffffffffffffffffffffffffffffffff163373ffffffffffffffffffffffffffffffffffffffff1614151561225e57600080fd5b6122688282612ca8565b8173ffffffffffffffffffffffffffffffffffffffff167f82b022d1eecf613bea364b53fbc7695eaca7dcdf2b68f772e893f077fd6fb11b826040518082815260200191505060405180910390a25050565b60008060003373ffffffffffffffffffffffffffffffffffffffff1673ffffffffffffffffffffffffffffffffffffffff16815260200190815260200160002054821115151561230957600080fd5b600073ffffffffffffffffffffffffffffffffffffffff168373ffffffffffffffffffffffffffffffffffffffff161415151561234557600080fd5b612396826000803373ffffffffffffffffffffffffffffffffffffffff1673ffffffffffffffffffffffffffffffffffffffff16815260200190815260200160002054612c7390919063ffffffff16565b6000803373ffffffffffffffffffffffffffffffffffffffff1673ffffffffffffffffffffffffffffffffffffffff16815260200190815260200160002081905550612429826000808673ffffffffffffffffffffffffffffffffffffffff1673ffffffffffffffffffffffffffffffffffffffff16815260200190815260200160002054612c8c90919063ffffffff16565b6000808573ffffffffffffffffffffffffffffffffffffffff1673ffffffffffffffffffffffffffffffffffffffff168152602001908152602001600020819055508273ffffffffffffffffffffffffffffffffffffffff163373ffffffffffffffffffffffffffffffffffffffff167fddf252ad1be2c89b69c2b068fc378daa952ba7f163c4a11628f55a4df523b3ef846040518082815260200191505060405180910390a36001905092915050565b600060011515600960003373ffffffffffffffffffffffffffffffffffffffff1673ffffffffffffffffffffffffffffffffffffffff16815260200190815260200160002060009054906101000a900460ff16151514151561253b57600080fd5b600073ffffffffffffffffffffffffffffffffffffffff16600860019054906101000a900473ffffffffffffffffffffffffffffffffffffffff1673ffffffffffffffffffffffffffffffffffffffff161415151561259957600080fd5b6001600860006101000a81548160ff021916908315150217905550600860019054906101000a900473ffffffffffffffffffffffffffffffffffffffff1673ffffffffffffffffffffffffffffffffffffffff1663c4bc5da56040518163ffffffff167c0100000000000000000000000000000000000000000000000000000000028152600401602060405180830381600087803b15801561263a57600080fd5b505af115801561264e573d6000803e3d6000fd5b505050506040513d602081101561266457600080fd5b8101908080519060200190929190505050507fa90445109fa4faeb8720a8d1c9cd6865d77479d2056b9d57fd176b58f572b41860405160405180910390a16001905090565b60075481565b600061274082600260003373ffffffffffffffffffffffffffffffffffffffff1673ffffffffffffffffffffffffffffffffffffffff16815260200190815260200160002060008673ffffffffffffffffffffffffffffffffffffffff1673ffffffffffffffffffffffffffffffffffffffff16815260200190815260200160002054612c8c90919063ffffffff16565b600260003373ffffffffffffffffffffffffffffffffffffffff1673ffffffffffffffffffffffffffffffffffffffff16815260200190815260200160002060008573ffffffffffffffffffffffffffffffffffffffff1673ffffffffffffffffffffffffffffffffffffffff168152602001908152602001600020819055508273ffffffffffffffffffffffffffffffffffffffff163373ffffffffffffffffffffffffffffffffffffffff167f8c5be1e5ebec7d5bd14f71427d1e84f3dd0314c0f7b2291e5b200ac8c7c3b925600260003373ffffffffffffffffffffffffffffffffffffffff1673ffffffffffffffffffffffffffffffffffffffff16815260200190815260200160002060008773ffffffffffffffffffffffffffffffffffffffff1673ffffffffffffffffffffffffffffffffffffffff168152602001908152602001600020546040518082815260200191505060405180910390a36001905092915050565b6000600960008373ffffffffffffffffffffffffffffffffffffffff1673ffffffffffffffffffffffffffffffffffffffff16815260200190815260200160002060009054906101000a900460ff169050919050565b60096020528060005260406000206000915054906101000a900460ff1681565b6000600260008473ffffffffffffffffffffffffffffffffffffffff1673ffffffffffffffffffffffffffffffffffffffff16815260200190815260200160002060008373ffffffffffffffffffffffffffffffffffffffff1673ffffffffffffffffffffffffffffffffffffffff16815260200190815260200160002054905092915050565b6000806000600860009054906101000a900460ff1615156129c857600080fd5b600073ffffffffffffffffffffffffffffffffffffffff16600860019054906101000a900473ffffffffffffffffffffffffffffffffffffffff1673ffffffffffffffffffffffffffffffffffffffff1614151515612a2657600080fd5b612a2f33611f29565b9150600084118015612a415750838210155b1515612a4c57600080fd5b612a56848361123c565b9050612a623385612ca8565b600860019054906101000a900473ffffffffffffffffffffffffffffffffffffffff1673ffffffffffffffffffffffffffffffffffffffff16633436860282336040518363ffffffff167c0100000000000000000000000000000000000000000000000000000000028152600401808381526020018273ffffffffffffffffffffffffffffffffffffffff1673ffffffffffffffffffffffffffffffffffffffff16815260200192505050600060405180830381600087803b158015612b2757600080fd5b505af1158015612b3b573d6000803e3d6000fd5b505050507f739b78ed09e4722db227eef0fca68d364a5a407b45f30889d7da8e9a3f856638338583604051808473ffffffffffffffffffffffffffffffffffffffff1673ffffffffffffffffffffffffffffffffffffffff168152602001838152602001828152602001935050505060405180910390a1600192505050919050565b600360009054906101000a900473ffffffffffffffffffffffffffffffffffffffff1673ffffffffffffffffffffffffffffffffffffffff163373ffffffffffffffffffffffffffffffffffffffff16141515612c1957600080fd5b612c2281612e0d565b50565b60008183811515612c3257fe5b04905092915050565b600080831415612c4e5760009050612c6d565b8183029050818382811515612c5f57fe5b04141515612c6957fe5b8090505b92915050565b6000828211151515612c8157fe5b818303905092915050565b60008183019050828110151515612c9f57fe5b80905092915050565b6000808373ffffffffffffffffffffffffffffffffffffffff1673ffffffffffffffffffffffffffffffffffffffff168152602001908152602001600020548111151515612cf557600080fd5b612d46816000808573ffffffffffffffffffffffffffffffffffffffff1673ffffffffffffffffffffffffffffffffffffffff16815260200190815260200160002054612c7390919063ffffffff16565b6000808473ffffffffffffffffffffffffffffffffffffffff1673ffffffffffffffffffffffffffffffffffffffff16815260200190815260200160002081905550612d9d81600154612c7390919063ffffffff16565b600181905550600073ffffffffffffffffffffffffffffffffffffffff168273ffffffffffffffffffffffffffffffffffffffff167fddf252ad1be2c89b69c2b068fc378daa952ba7f163c4a11628f55a4df523b3ef836040518082815260200191505060405180910390a35050565b600073ffffffffffffffffffffffffffffffffffffffff168173ffffffffffffffffffffffffffffffffffffffff1614151515612e4957600080fd5b8073ffffffffffffffffffffffffffffffffffffffff16600360009054906101000a900473ffffffffffffffffffffffffffffffffffffffff1673ffffffffffffffffffffffffffffffffffffffff167f8be0079c531659141344cd1fd0a4f28419497f9722a3daafe3b4186f6b6457e060405160405180910390a380600360006101000a81548173ffffffffffffffffffffffffffffffffffffffff021916908373ffffffffffffffffffffffffffffffffffffffff160217905550505600a165627a7a72305820746bedd2ef813f4ecb153886fe3f390ee375d3e3ef2c62156ace3e99f14499040029",
  "source": "pragma solidity ^0.4.24;\n\nimport \"openzeppelin-solidity/contracts/token/ERC20/MintableToken.sol\";\nimport \"openzeppelin-solidity/contracts/math/SafeMath.sol\";\nimport \"./BondingCurveFunds.sol\";\n\n/**\n * @title Proof of Concept contract for the Khana framework\n * @author David Truong <david@truong.vc>\n * @dev This is a mintable token with a group of admins who can mint them (i.e.\n * award them) to community members, record the IPFS hash of the reasons associated\n * with each minting, and a simple bonding curve where token holders can redeem\n * ETH for tokens they've received.\n * For more information, see: https://goo.gl/z7VdXg\n */\n\ncontract KhanaToken is MintableToken {\n    using SafeMath for uint256;\n\n    string public name = \"KhanaToken\";\n    string public symbol = \"KHNA\";\n    uint8 public decimals = 18;\n\n    // Minimum ETH contract should have to enable bonding curve\n    uint public minimumEthBalance = 1000000000000000000;\n\n    bool public contractEnabled = true;\n\n    address public fundsContract;\n\n    mapping (address => bool) public adminAccounts;\n\n    event LogContractDisabled();\n    event LogContractEnabled();\n    event LogAdminAdded(address indexed account);\n    event LogAdminRemoved(address indexed account);\n    event LogAwarded(\n        address indexed awardedTo,\n        address indexed minter,\n        uint amount,\n        string ipfsHash\n    );\n    event LogSell(\n        address sellingAccount,\n        uint256 sellAmount,\n        uint256 ethReceived\n    );\n    event LogFundsContractChanged(\n        address oldContract,\n        address newContract\n    );\n    event LogBurned(\n        address indexed burnFrom,\n        uint amount\n    );\n\n    /**\n     * @dev The owner is automatically set by Ownable.sol. The owner is also added\n     * as an admin.\n     */\n    constructor() public {\n        adminAccounts[msg.sender] = true;\n    }\n\n    /**\n     * @dev Throws if called by a non-admin account.\n     */\n    modifier onlyAdmins() {\n        require(adminAccounts[msg.sender] == true);\n        _;\n    }\n\n    /**\n     * @dev Throws if called by a non-admin account.\n     * @notice This modifier overrides the modifier of the same name in\n     * MintableToken.sol. We want to keep the safety of Zeppelin's mintableToken,\n     * but expand the usecase slightly with more admins with mint permissions.\n     */\n    modifier hasMintPermission() {\n        require(adminAccounts[msg.sender] == true);\n        _;\n    }\n\n    /**\n     * @dev Throws if called when contract has been disabled via 'emergencyStop()'.\n     */\n    modifier contractIsEnabled() {\n        require(contractEnabled);\n        _;\n    }\n\n    /**\n     * @dev Throws if called when contract has been disabled via 'emergencyStop()'.\n     */\n    modifier fundsContractIsValid() {\n        require(fundsContract != address(0));\n        _;\n    }\n\n    /**\n     * @dev The fallback function, which is used to 'fund' the token for\n     * liquidity of the token (see 'sell' function).\n     * @notice Anyone can fund the token contract with ETH to increase the 'pot'\n     * associated with the token. However this would normally be done by the\n     * community organisers, who may send a portion of sponsorship money or ticket\n     * sales from community organised events.\n     * The 'fundsContract' must be set to a valid address.\n     */\n    function () public contractIsEnabled payable fundsContractIsValid {\n        fundsContract.transfer(msg.value);\n    }\n\n    /**\n     * @dev Award tokens to users with relevant audit information in an IPFS file.\n     * @notice The IPFS hash should always be included with any reward of tokens,\n     * to ensure auditing of the minting process can be done at anytime in the future.\n     * The event emitted must also specify the IPFS hash so that it is permanently\n     * recorded on the blockchain, and that the IPFS hash related to the most up\n     * to date audit log can be found easily.\n     * We do not want to record the IPFS hashes in an array on the blockchain as\n     * it would end up costing too much, hence we 'store' them in emitted event logs.\n     * @param _account The address of the user to awarded.\n     * @param _amount The amount to be awarded.\n     * @param _ipfsHash The IPFS hash of the latest audit log, which includes the\n     * details and reason for the current award of tokens.\n     */\n    function award(\n        address _account,\n        uint256 _amount,\n        string _ipfsHash\n    )\n        public\n        onlyAdmins\n        contractIsEnabled\n    {\n        mint(_account, _amount);\n        emit LogAwarded(_account, msg.sender, _amount, _ipfsHash);\n    }\n\n    /**\n     * @dev Allow token holders to sell their tokens in return for ETH according\n     * to a simple bonding curve.\n     * @notice At the moment the calculation for how much ETH is returned is very\n     * simplistic. Depending on the portion of the supply they hold, they can\n     * liquidate a larger amount of the ETH 'pot', to a maximum of 50% of the pot.\n     * E.g. User A holds 25% of the supply and the ETH pot is 100 ETH. Therefore\n     * they can sell all their tokens for a maximum amount of 12.5 ETH\n     * (0.25 * 0.5 * 100 = 12.5 ETH). See 'whitepaper' for more details around\n     * game theory and how this may work as an incentive mechanism. This will\n     * likely change in the future to a more complex bonding curve implementation.\n     * Example bonding curve calculations here: https://goo.gl/jeJkV5\n     * @param _amount The amount to sell.\n     */\n    function sell(uint256 _amount) public contractIsEnabled fundsContractIsValid returns (bool) {\n        uint256 tokenBalanceOfSender = balanceOf(msg.sender);\n        require(_amount > 0 && tokenBalanceOfSender >= _amount);\n\n        uint256 redeemableEth = calculateSellReturn(_amount, tokenBalanceOfSender);\n        _burn(msg.sender, _amount);\n\n        BondingCurveFunds(fundsContract).sendEth(redeemableEth, msg.sender);\n\n        emit LogSell(msg.sender, _amount, redeemableEth);\n\n        return true;\n    }\n\n    /**\n     * @dev Allow token hold to calculate the potential ETH return they will receive\n     * from selling a certain amount of tokens.\n     * @notice This is also used in the 'sell' function. See above for discussion.\n     * @param _sellAmount The amount of tokens to sell.\n     * @param _tokenBalance Their entire token balance.\n     */\n    function calculateSellReturn(\n        uint256 _sellAmount,\n        uint256 _tokenBalance\n    )\n        public\n        fundsContractIsValid\n        view\n        returns (uint256)\n    {\n        require(fundsContract.balance >= minimumEthBalance);\n        require(_tokenBalance >= _sellAmount);\n\n        uint256 tokenSupply = getSupply();\n\n        // EVM doesn't deal with floating points well, so multiple and divide by\n        // 10e18 to retain accuracy\n        uint256 multiplier = 10**18;\n\n        // User can redeem a maximum 50% of the 'pot' if they own 100% of the supply\n        uint256 maxRedeemableEth = fundsContract.balance.div(2);\n\n        // Essentially ((tokens i have) / (total supply)) * (ETH in contract * 0.5),\n        // using a multiplier due to EVM constraints\n        uint256 redeemableEth = (_sellAmount.mul(multiplier).div(tokenSupply).mul(maxRedeemableEth)).div(multiplier);\n\n        return redeemableEth;\n    }\n\n    /**\n     * @dev Set the 'fundsContract' to a different contract address that is used\n     * in the bonding curve.\n     * @notice Only the owner can change this value.\n     * @param _contract The contract of the new funds contract\n     */\n    function setFundsContract(address _contract) public onlyOwner {\n        address oldContract = fundsContract;\n        fundsContract = _contract;\n        emit LogFundsContractChanged(oldContract, _contract);\n    }\n\n    /**\n     * @dev An emergency stop that can only be called by the admins.\n     * @notice This is an alternative to 'finishMinting()' in MintableToken.sol\n     * to enable admins to stop the minting process (not just the owner), and also\n     * disables selling the token into the bonding curve contract.\n     * Having a valid 'fundsContract' is optional to set the emergency stop.\n     * @return A bool indicating if the emergency stop was successful.\n     */\n    // override onlyOwner in mintableToken\n    function emergencyStop() public onlyAdmins contractIsEnabled returns (bool) {\n        contractEnabled = false;\n        if (fundsContract != address(0)) {\n            BondingCurveFunds(fundsContract).emergencyStop();\n        }\n        emit LogContractDisabled();\n        return true;\n    }\n\n    /**\n     * @dev Restore contract functionality, only callable by admins.\n     * @notice A valid 'fundsContract' must be set before resuming. This can be\n     * done via setFundsContract(address).\n     * @return A bool indicating if the resuming of minting was successful.\n     */\n    function resumeContract() public onlyAdmins fundsContractIsValid returns (bool) {\n        contractEnabled = true;\n        BondingCurveFunds(fundsContract).resumeContract();\n        emit LogContractEnabled();\n        return true;\n    }\n\n    /**\n     * @dev Add an admin.\n     * @param _account The address of the new admin.\n     */\n    function addAdmin(address _account) public onlyAdmins {\n        adminAccounts[_account] = true;\n        emit LogAdminAdded(_account);\n    }\n\n    /**\n     * @dev Remove an admin.\n     * @notice The original owner (i.e. contract creator) should always have the\n     * power to restore things, so cannot be removed as an admin. If the owner\n     * role needs to be transfered, then call 'transferOwnership()' in Ownable.sol.\n     * @param _account The address of the admin to be removed.\n     */\n    function removeAdmin(address _account) public onlyAdmins {\n        require(_account != owner);\n        adminAccounts[_account] = false;\n        emit LogAdminRemoved(_account);\n    }\n\n    /**\n     * @dev Check if a user is an admin.\n     * @param _account The address of the user to check.\n     * @return A bool indicating if the specified account is an admin.\n     */\n    function checkIfAdmin(address _account) public view returns (bool) {\n        return adminAccounts[_account];\n    }\n\n    /**\n     * @dev Burn tokens from a specific account.\n     * @notice This should be used very carefully, as it will affect the audit\n     * trail being saved in IPFS and the trust in being awarded the tokens.\n     * Still not sure if this function will remain enabled in future versions.\n     * For now, only the owner can burn tokens\n     * @param _account The address of the account to burn tokens.\n     * @param _amount The amount of tokens to burn.\n     */\n    function burn(\n        address _account,\n        uint256 _amount\n    ) public onlyOwner {\n        _burn(_account, _amount);\n        emit LogBurned(_account, _amount);\n    }\n\n    /**\n     * @dev Get the total supply of tokens in circulation.\n     * @return A uint256 specifying the total supply of tokens.\n     */\n    function getSupply() public view returns (uint256) {\n        return totalSupply();\n    }\n\n    /**\n     * @dev The internal burn function, copied from OpenZepplin's burnable token\n     */\n    function _burn(address _who, uint256 _value) internal {\n        require(_value <= balances[_who]);\n        // no need to require value <= totalSupply, since that would imply the\n        // sender's balance is greater than the totalSupply, which *should* be an assertion failure\n\n        balances[_who] = balances[_who].sub(_value);\n        totalSupply_ = totalSupply_.sub(_value);\n        emit Transfer(_who, address(0), _value);\n    }\n\n}\n",
  "sourcePath": "/Users/david/Documents/Documents - Davids MacBook Pro/GitHub/KhanaFramework/KhanaFramework/Khana POC/contracts/KhanaToken.sol",
  "compiler": {
    "name": "solc",
    "version": "0.4.24+commit.e67f0147.Emscripten.clang"
  },
  "schemaVersion": "2.0.1",
  "updatedAt": "2018-10-17T13:27:54.138Z"
}